:020000040800F2
:10000000486D00204902000875230008551B0008B0
:100010004D2100088B0B0008C96B00080000000090
:1000200000000000000000000000000089600008DF
:1000300075180008000000005B0400085962000801
:1000400063020008630200086302000863020008FC
:1000500063020008630200086302000863020008EC
:1000600063020008630200086302000863020008DC
:100070006302000863020008350C000863020008F0
:1000800063020008630200086302000863020008BC
:1000900063020008630200086302000863020008AC
:1000A000630200086302000863020008630200089C
:1000B000630200086302000863020008630200088C
:1000C000630200086302000863020008630200087C
:1000D000630200086569000863020008756900088A
:1000E000630200086302000863020008630200085C
:1000F000630200086302000863020008630200084C
:10010000630200086302000863020008630200083B
:10011000630200086302000863020008630200082B
:10012000630200086302000863020008630200081B
:10013000630200086302000863020008630200080B
:1001400063020008630200086302000863020008FB
:100150006302000863020008450C000863020008FF
:1001600063020008630200086302000863020008DB
:1001700063020008630200086302000863020008CB
:10018000630200086302000800F002F800F04CF877
:100190000AA090E8000C82448344AAF10107DA45E2
:1001A00001D100F041F8AFF2090EBAE80F0013F0E8
:1001B000010F18BFFB1A43F001031847448F0000DA
:1001C000648F00000A4410F8014B14F00F0508BFBB
:1001D00010F8015B240908BF10F8014B6D1E05D013
:1001E00010F8013B6D1E01F8013BF9D1641E03D0EC
:1001F000641E01F8015BFBD19142E4D3704700001B
:100200000023002400250026103A28BF78C1FBD81F
:10021000520728BF30C148BF0B6070471FB508F0B8
:100220000AFE1FBD10B510BD00F0C7F81146FFF75C
:10023000F5FF07F011FD00F0E5F803B4FFF7F2FF5A
:1002400003BC00F0E9F8000009488047094800476E
:10025000FEE7FEE7FEE7FEE7FEE7FEE7FEE7FEE776
:10026000FEE7FEE704480549054A064B70470000D3
:10027000856200088901000848670020486D002059
:10028000486900204869002072B6704762B670471E
:10029000EFF3108072B6704780F31088704730BF5C
:1002A000704720BF7047B0FA80F0704790FAA0F016
:1002B000B0FA80F0704790FAA0F07047032A40F23D
:1002C000308010F0030C00F0158011F8013BBCF1F8
:1002D000020F624498BF11F801CB00F8013B38BF10
:1002E00011F8013BA2F1040298BF00F801CB38BF1E
:1002F00000F8013B11F0030300F02580083AC0F03C
:10030000088051F8043B083A51F804CBA0E80810E3
:10031000F5E7121D5CBF51F8043B40F8043BAFF316
:100320000080D20724BF11F8013B11F801CB48BF70
:1003300011F8012B24BF00F8013B00F801CB48BFA6
:1003400000F8012B704710B5203AC0F00B80B1E8DF
:100350001850203AA0E81850B1E81850A0E81850FA
:10036000BFF4F5AF5FEA027C24BFB1E81850A0E803
:10037000185044BF18C918C0BDE810405FEA827C1D
:1003800024BF51F8043B40F8043B08BF7047D20734
:1003900028BF31F8023B48BF11F8012B28BF20F8D5
:1003A000023B48BF00F8012B704770477047704709
:1003B00000487047E866002070477546FFF7F8FF71
:1003C000AE4605006946534620F00700854618B042
:1003D00020B5FFF747FFBDE820404FF000064FF083
:1003E00000074FF000084FF0000B21F00701AC466A
:1003F000ACE8C009ACE8C009ACE8C009ACE8C00989
:100400008D46704710B50446AFF300802046BDE826
:100410001040FFF712BF000001491820ABBEFEE7F5
:100420002600020022484FF6FF710170002080F381
:1004300009882048016881F308881F484FF08051DF
:10044000016062B6FEE71C484FF0805101607047C2
:1004500019484FF080510160704772B6EFF3098080
:1004600050B11EF0100F08BF20ED108A203880E830
:10047000F00F12490968086000B5114880475DF81F
:1004800004EB104810490A7802700C480F490A68BA
:100490000260106890E8F00F20301EF0100F08BFC7
:1004A000B0EC108A80F309884EF0040E62B67047F3
:1004B00022ED00E0D800002004ED00E0D000002094
:1004C000153700085E0000205F000020D4000020E7
:1004D00021B1826842F00102826003E0826822F06A
:1004E00001028260704700000021084A1168084A32
:1004F0001140D0E900231A4383681A43C3681A43A2
:100500001143044AC2F80413704700000423014059
:10051000E030FCFF0020014021B1826842F480728B
:10052000826003E0826822F480728260704721B1A9
:10053000826842F40072826003E0826822F40072F2
:100540008260704730B50246002000235068104C8E
:1005500020400D790C6844EA0524204350609068DF
:100560000C4C2040D1E903542C438D682C434D7929
:1005700044EA450420439060D06A20F470000C7D6A
:10058000641EE4B2234340EA0350D06230BD000051
:10059000FFFEFFFCFDF7FFC0F0B504460D4600204E
:1005A0000021092D11DDE068A5F10A0606EB4607DA
:1005B000072606FA07F18843A5F10A0606EB460668
:1005C00003FA06F10843E0600CE0206905EB4507FB
:1005D000072606FA07F1884305EB450603FA06F1FC
:1005E00008432061072A0FDA606B561E06EB860768
:1005F0001F2606FA07F18843561E06EB860605FA03
:1006000006F10843606322E00D2A0FDA206BD61F43
:1006100006EB86071F2606FA07F18843D61F06EB6E
:10062000860605FA06F10843206310E0E06AA2F1AD
:100630000D0606EB86071F2606FA07F18843A2F18E
:100640000D0606EB860605FA06F10843E062F0BDEA
:10065000816841F080418160704700000EB500BFA5
:1006600001200649087708E002A8002102230A4673
:10067000CDE90010084603F0F3F8F5E7445F0020E9
:1006800000B59BB001213D4805F0ECFA01210802BC
:1006900005F008FB04200A9003208DF82C000020B0
:1006A0008DF82F000AA9364801F0C9F90121080286
:1006B00005F008FB00214FF4807005F003FB0020DB
:1006C00006904FF470600990002008904FF480303D
:1006D000079006A8FFF708FF002000908DF804009F
:1006E00001208DF8050000200290049001208DF873
:1006F000140069462348FFF725FF072301220C2138
:100700002048FFF749FF01211E48FFF710FF012194
:100710001C48FFF701FF01211A48FFF7D9FE1A48CC
:1007200000F0BEFA0520109000200C900F9017905A
:1007300016480E90002019904FF400501490C010ED
:100740001290801015900F484C300D9000201A9098
:100750004FF400601390002011904FF40030169079
:100760000CA9094800F09CFB0121074800F08CFA15
:100770000448FFF76DFF1BB000BD000004004000FF
:10078000000802400020014010640240AC630020D9
:1007900010B52DED028BA2480078B0B3A148D0ED82
:1007A000011AA14890ED012A71EEC21AB0EE610A59
:1007B0009E48D0ED031A61EE801A9D48C0ED071ADD
:1007C0009848D0ED001A984890ED002A71EEC21AB0
:1007D000F0EE610A9548D0ED001A61EEA01A954836
:1007E000C0ED071A8F48D0ED021A934890ED022A07
:1007F00071EEC21AB0EE611A8C48D0ED061A61EEA5
:10080000811A8E48C0ED071A00BF85480078C043A2
:1008100008B1012000E00020814908708848407834
:1008200005282DD0804890ED031AF0EE410A80484B
:1008300090ED071AB0EE410A9FED822AF5EE001AFC
:100840009FED811A81497948243004F025FF7648CC
:10085000D0ED040A90ED051ADFED7D1A21EE211A84
:1008600000EE810AD0ED040A9FED7A1A60EE810A4B
:1008700090ED051A00EEC10A774880ED000A32E0DB
:10088000684890ED030ADFED750A80EE201AB0EE9D
:10089000418A654890ED030AF0EE400A9FED692A0F
:1008A000F5EE001A9FED681AB0EE480A67495F48F6
:1008B000243004F0F1FE5C48D0ED040A90ED051AF6
:1008C000DFED631A21EE211A00EE810AD0ED040A51
:1008D0009FED601A60EE810A90ED051A00EEC10AE4
:1008E0005D4880ED000A5648407804282FD04E48D5
:1008F00090ED041AF0EE410A4E4890ED071AB0EE62
:10090000410A9FED502AF5EE001A9FED4F1A544907
:100910004648303004F0C0FE4348D0ED030A90ED65
:10092000051ADFED4B1A21EE211A60EE810A90EDD7
:10093000031ADFED481A21EE211AD0ED051A51EE07
:10094000210A30EE200A444880ED010A34E035489F
:1009500090ED040ADFED410A80EE201AB0EE418AE4
:10096000314890ED040AF0EE400A9FED362AF5EE8C
:10097000001A9FED351AB0EE480A39492B4830303D
:1009800004F08AFE2848D0ED030A90ED051ADFED49
:10099000301A21EE211A60EE810A90ED031ADFED84
:1009A0002D1A21EE211AD0ED051A51EE210A30EE52
:1009B000200A294880ED010A1B4890ED051AF0EE47
:1009C000410A1E4890ED071AB0EE410A9FED1D2A1C
:1009D000F5EE001A9FED1C1A224914483C3004F031
:1009E0005BFE1148D0ED030A90ED041ADFED191AF1
:1009F00021EE211A00EE810AD0ED030A9FED151AAF
:100A000060EE810A90ED041A00EEC10A124880EDF2
:100A1000020A9FED150A05F057FEBDEC028B10BDD2
:100A2000F0000020105F0020C85E00202861002038
:100A3000C85F0020A85F0020B8610020E85F0020A8
:100A4000DC0000200361023C0AD7A33B6860002061
:100A50006F12033B6F12833A645F002000409C4595
:100A600088600020A86000205C8F423E0EB500BF69
:100A70000024012535E01B48007801281DD11948C4
:100A80004078032816D1B4F5FA7F07D2641CC82336
:100A90001A461946184604F0FBFE19E02DB1002550
:100AA00001201149087004F019FFFFF771FE05F0ED
:100AB000EDFA0DE0FFF76CFE0AE0002401250020AE
:100AC0000949087000231A461946184604F0E0FE4A
:100AD00002A8002105230A46CDE90010084602F0CD
:100AE000BFFEC8E7DC000020E50000201FB5684617
:100AF00005F0F8F8019804B010BD0EB500BF08E08D
:100B000002A8002164230A46CDE90010084602F03D
:100B1000A7FEF5E710B54FF4E13006F05BF910BD24
:100B20000EB500BF13E00A488078012804D107F011
:100B3000D5F800200649887007F0FCFA02A80021C9
:100B400032230A46CDE90010084602F089FEEAE7A2
:100B5000DC00002010B5A82005F0C8FB4FF4A06011
:100B600001F046FC42F2107006F0E8FFFFF788FD46
:100B700005F02CF904F0FEFD4FF4613006F026F884
:100B8000FFF7C8FF00F0CAFF10BD00BFFEE710B5B9
:100B900000F020F800F01AF810BD000010B5002495
:100BA00000BF00BFFFF774FB044600BF00BF102169
:100BB000054801F0CDFA00BF00BF2046FFF76CFBEF
:100BC00000BF00BF10BD00002C01002010B5FFF7D2
:100BD000E5FF10BD10B500200249086000F00AF8DA
:100BE00010BD000018000020014908607047000097
:100BF0001800002010B5FFF779FF04460848006888
:100C000040F08070064908600020064948600846A8
:100C1000006840F0010008602046FFF7E5FF10BDC6
:100C2000FCED00E0001000E001494868704700005A
:100C3000001000E010B501F0C5FC05F08BFF01F0DD
:100C4000D7FC10BD10B501F0BDFC05F069FF01F047
:100C5000CFFC10BD0246094B9A4201D2084801E080
:100C60000648103801F000531BB1064B0B40C3601F
:100C700002E0044B0B4083607047000010640240A8
:100C8000006002407D0F7D0F21B1026842F0010239
:100C9000026003E0026822F0010202607047000077
:100CA000016821F001010160002101604160816063
:100CB000C1600161212141614A49884204D13D213D
:100CC000484A103A91608CE046491831884205D173
:100CD0004FF47461434A103A916082E041493031E7
:100CE000884205D14FF474113E4A103A916078E081
:100CF0003C494831884205D14FF07461394A103A75
:100D000091606EE037496031884204D13649354AF6
:100D1000103AD16065E033497831884204D13349D3
:100D2000304A103AD1605CE02E499031884204D1BB
:100D30002F492C4A103AD16053E02A49A831884201
:100D400005D14FF03D51274A103AD16049E0294979
:100D5000884204D13D21274A083A116041E02549E3
:100D60001831884205D14FF47461224A083A116063
:100D700037E020493031884205D14FF474111D4AC3
:100D8000083A11602DE01B494831884205D14FF0E7
:100D90007461184A083A116023E0164960318842AC
:100DA00004D11149134A121F11601AE01149783118
:100DB000884204D10D490F4A121F116011E00D49FC
:100DC0009031884204D10A490A4A121F116008E092
:100DD0000849A831884204D14FF03D51054A121FFD
:100DE00011607047106002403D000020400F00205D
:100DF00000003D20106402400146486880B2704700
:100E000070B50246002000240025124EB24201D2E5
:100E1000114B01E00F4B103B104E0E4036B11E2619
:100E200006EAD124166806EA040502E0566906F0CF
:100E3000800501F000560EB15C6800E01C68084EA9
:100E4000344004EA010616B10DB1012000E0002093
:100E500070BD000010640240006002403C0F3C0F77
:100E60007D0F7D0F10B501F080034BB122B14369B6
:100E700043F08003436103E0436923F0800343614F
:100E800080290BD02AB1036801F01E0423430360BC
:100E900004E0036801F01E04A343036010BD0000DA
:100EA00010B500220268134B1A40CC680B6823432C
:100EB0004C6923438C692343CC6923430C6A234345
:100EC0004C6A23438C6A23434C6B23438C6B234330
:100ED0001A430260426922F00702D1E90B3423432E
:100EE0001A4342610B6943604B6883608B68C3603F
:100EF00010BD00003F801CF0416070470FB47FB50B
:100F00000898142814D19DF824005528FAD108A86F
:100F10004079AA28F6D108A88079FF2818D1FE4880
:100F2000406CA8B908A8C07918B90020FB4908701E
:100F3000C3E308A8C079012802D1F8490870BCE3CE
:100F400008A8C0790228F3D10120F4494860B4E32D
:100F500008A88079012853D1F048407803284FD061
:100F6000002406E0E01C09A9085C03A90855601CE0
:100F7000C4B2042CF6DB042103A800F0EDFDDFED84
:100F8000E80A20EE200ADFEDE70A80EE201AE648A4
:100F900080ED001A002406E0E01D09A9085C03A901
:100FA0000855601CC4B2042CF6DB042103A800F031
:100FB000D3FDDFEDDB0A20EE200ADFEDDA0A80EE5A
:100FC000201AD94880ED011A002407E004F10B0033
:100FD00009A9085C03A90855601CC4B2042CF5DB00
:100FE000042103A800F0B8FDDFEDCD0A20EE200AB1
:100FF000DFEDCC0A80EE201ACB4880ED021A5CE3CC
:1010000008A88079022822D108A8C07906281CD215
:10101000DFE800F003070B0F13170020BF494870EB
:1010200014E00120BD49487010E00220BB4948701F
:101030000CE00320B949487008E00420B749487023
:1010400004E00520B549487000BF00BF35E308A89B
:101050008079032803D10120B04988702DE308A8C6
:101060008079042803D10020B049087725E308A837
:10107000807905282ED1002417E0002508E0E81C1F
:1010800000EB840109A8405C03A94855681CC5B25F
:10109000042DF4DB042103A800F05EFD684600EB9C
:1010A000840080ED000A601CC4B2032CE5DB9DEDDA
:1010B000000A9F4880ED000A9DED010A80ED010ABB
:1010C0009DED020A80ED020A06F016F9012093490F
:1010D0008870F2E208A8807906282ED1002417E053
:1010E000002508E0E81C00EB840109A8405C03A986
:1010F0004855681CC5B2042DF4DB042103A800F098
:101100002BFD684600EB840080ED000A601CC4B231
:10111000032CE5DB9DED000A854880ED030A9DED7B
:10112000010A80ED040A9DED020A80ED050A06F031
:10113000E3F8012079498870BFE208A88079072880
:101140002ED1002417E0002508E0E81C00EB840104
:1011500009A8405C03A94855681CC5B2042DF4DBFE
:10116000042103A800F0F8FC684600EB840080ED41
:10117000000A601CC4B2032CE5DB9DED000A6C483C
:1011800080ED060A9DED010A80ED070A9DED020A39
:1011900080ED080A06F0B0F80120604988708CE202
:1011A00008A8807908282ED1002417E0002508E03F
:1011B000E81C00EB840109A8405C03A94855681CA1
:1011C000C5B2042DF4DB042103A800F0C5FC684679
:1011D00000EB840080ED000A601CC4B2032CE5DB48
:1011E0009DED000A524880ED180A9DED010A80ED40
:1011F000190A9DED020A80ED1A0A06F07DF8012019
:101200004649887059E208A880790B282ED100241D
:1012100017E0002508E0E81C00EB840109A8405C09
:1012200003A94855681CC5B2042DF4DB042103A8AA
:1012300000F092FC684600EB840080ED000A601C20
:10124000C4B2032CE5DB9DED000A394880ED0C0AA1
:101250009DED010A80ED0D0A9DED020A80ED0E0A5A
:1012600006F04AF801202D49887026E208A8807906
:101270000C282ED1002417E0002508E0E81C00EB24
:10128000840109A8405C03A94855681CC5B2042D17
:10129000F4DB042103A800F05FFC684600EB840047
:1012A00080ED000A601CC4B2032CE5DB9DED000A52
:1012B0001F4880ED090A9DED010A80ED0A0A9DEDA7
:1012C000020A80ED0B0A06F017F801201349887016
:1012D000F3E108A880790D283DD1002417E000250E
:1012E00008E0E81C00EB840109A8405C03A948550C
:1012F000681CC5B2042DF4DB042103A800F02CFC0B
:10130000684600EB840080ED000A601CC4B2032C28
:10131000E5DB9DED000A0DE0C85E0020DC0000204A
:10132000DB0F494000003443105F0020445F002081
:1013300028610020E24880ED0F0A9DED010A80ED52
:10134000100A9DED020A80ED110A05F0D5FF01207B
:10135000DC498870B1E108A880790E282ED10024DC
:1013600017E0002508E0E81C00EB840109A8405CB8
:1013700003A94855681CC5B2042DF4DB042103A859
:1013800000F0EAFB684600EB840080ED000A601C78
:10139000C4B2032CE5DB9DED000AC94880ED210AAB
:1013A0009DED010A80ED220A9DED020A80ED230ADF
:1013B00005F0A2FF0120C34988707EE108A880796A
:1013C0000F2824D1002406E0E01C09A9085C03A929
:1013D0000855601CC4B2042CF6DB042103A800F0FD
:1013E000BBFBB94880ED040A002406E0E01D09A912
:1013F000085C03A90855601CC4B2042CF6DB042168
:1014000003A800F0A9FBB04880ED030A55E108A845
:101410008079102837D1002406E0E01C09A9085C77
:1014200003A90855601CC4B2042CF6DB042103A8F0
:1014300000F092FBA54880ED030A002406E0E01DC1
:1014400009A9085C03A90855601CC4B2042CF6DB8A
:10145000042103A800F080FB9C4880ED040A0024CE
:1014600007E004F10B0009A9085C03A90855601CFA
:10147000C4B2042CF5DB042103A800F06DFB9348F3
:1014800080ED050A19E108A8807911284AD10024C5
:1014900006E0E01C09A9085C03A90855601CC4B259
:1014A000042CF6DB042103A800F056FB884880EDED
:1014B000000A002406E0E01D09A9085C03A90855FC
:1014C000601CC4B2042CF6DB042103A800F044FB2A
:1014D0007F4880ED010A002407E004F10B0009A910
:1014E000085C03A90855601CC4B2042CF5DB042178
:1014F00003A800F031FB764880ED030A002407E0E2
:1015000004F10F0009A9085C03A90855601CC4B2C6
:10151000042CF5DB042103A800F01EFB6C4880EDD1
:10152000020ACAE008A8807912282ED1002417E008
:10153000002508E0E81C00EB840109A8405C03A931
:101540004855681CC5B2042DF4DB042103A800F043
:1015500003FB684600EB840080ED000A601CC4B207
:10156000032CE5DB9DED000A554880ED120A9DED48
:10157000010A80ED130A9DED020A80ED140A05F0C0
:10158000BBFE01204F49887097E008A88079132896
:101590002ED1002417E0002508E0E81C00EB8401B0
:1015A00009A8405C03A94855681CC5B2042DF4DBAA
:1015B000042103A800F0D0FA684600EB840080ED17
:1015C000000A601CC4B2032CE5DB9DED000A3C4818
:1015D00080ED150A9DED010A80ED160A9DED020AC7
:1015E00080ED170A05F088FE01203649887064E016
:1015F00008A8807914282ED1002417E0002508E0DF
:10160000E81C00EB840109A8405C03A94855681C4C
:10161000C5B2042DF4DB042103A800F09DFA68464E
:1016200000EB840080ED000A601CC4B2032CE5DBF3
:101630009DED000A224880ED1B0A9DED010A80ED18
:101640001C0A9DED020A80ED1D0A05F055FE0120E1
:101650001C49887031E008A8807915282DD1002414
:1016600017E0002508E0E81C00EB840109A8405CB5
:1016700003A94855681CC5B2042DF4DB042103A856
:1016800000F06AFA684600EB840080ED000A601CF6
:10169000C4B2032CE5DB9DED000A094880ED1E0A6B
:1016A0009DED010A80ED1F0A9DED020A80ED200AE2
:1016B00005F022FE0120034988707FBC5DF814FB11
:1016C00028610020DC000020105F0020DC61002089
:1016D000345F00208EB000BF0DAB012211A1154870
:1016E00001F0FAF81CE00DA800231A4619460090F4
:1016F000104801F031F940220F491048FEF723FE4F
:101700000D48001F00680D49091F08603422103180
:101710006846FEF718FE0948001F0FC800F010F8D1
:10172000E1E70000446174614465616C5F70726F51
:10173000630000004862002004650020B8620020B9
:101740000FB400B58DB00E98142844D042480078EC
:10175000012840D19DF83C0055283CD00EA8407986
:10176000AA2838D040220FA93C48FEF7ECFD3C489F
:1017700000783C4908700FE03A4800783849097809
:10178000401A3649085C3849364A12788854354838
:101790000078401C33490870314909780E98084494
:1017A000304909788842E7D8142030490860002081
:1017B0002949087014222C492C48001DFEF7C3FD4E
:1017C00034222A4910316846FEF7BDFD27480FC86C
:1017D000FFF794FB3CE00E98142825D89DF83C00B8
:1017E000552821D140220FA92148FEF7ACFD002049
:1017F0001C4908700CE01E481A490978405C1A49D7
:10180000184A1278885417480078401C1549087007
:10181000144909780E988842EDD811490E9808703D
:1018200001200D49087013E00E98142810D19DF87E
:101830003C0055280CD10EA84079AA2808D13422A2
:1018400012A96846FEF77FFD0EA80FC8FFF756FBEA
:101850000DB05DF814FB0000F40000207C66002051
:10186000F3000020F2000020D466002090660020E3
:10187000686600207047000030B10749096841F4EC
:101880008061054A116005E00349096821F480611F
:10189000014A116070470000003C024070B50446E8
:1018A0000A460026092502B909E0012A01D11602DB
:1018B00005E0022A01D1160201E04FF4407600F063
:1018C0009FF80546092D28D11548006820F440707E
:1018D00013490860084600683043086008460068FD
:1018E00020F0F80008600846006844F00201084350
:1018F0000B4908600846006840F48030086000F03A
:101900007FF805460648006820F002000449086098
:101910000846006820F0F8000860284670BD000006
:10192000103C024009201349096801F48031B1F5E7
:10193000803F01D101201CE00E49096801F010012F
:1019400009B1062015E00B49096801F4807109B15D
:1019500002200EE00749096801F0EF0109B10720F4
:1019600007E00449096801F0020109B1082000E01C
:10197000092070470C3C02400348006840F00040DA
:101980000149086070470000103C024030B5024633
:101990000C46092500F034F80546092D19D10E48EA
:1019A000006820F440700C4908600846006840F464
:1019B000007008600846006840F00100086014608C
:1019C00000F01EF805460448006820F001000249B6
:1019D0000860284630BD0000103C02400548006801
:1019E00000F0004028B1044802490C39086003485F
:1019F00008607047103C024023016745AB89EFCD7A
:101A000008B509200090FFF78DFF009002E0FFF776
:101A100089FF00909DF800000128F8D09DF8000093
:101A200008BD01B52DED020B6A46002104E01378D4
:101A30000370521C401C491C0429F8D30EBDF0B59C
:101A40000A4600210023002400BF3DE0012505FADD
:101A500001F3156805EA03049C4234D105684F0080
:101A60000326BE40B543056015794E00B5400668B3
:101A7000354305601579012D02D01579022D16D157
:101A800085684F000326BE40B543856055794E00FA
:101A9000B540866835438560456801268E40B5436C
:101AA0004560456896798E40B6B235434560C56855
:101AB0004F000326BE40B543C560D5794E00B54002
:101AC000C6683543C560491C1029BFD3F0BDF0B5C9
:101AD000002300244D07ED0E02FA05F3CE1000F1AD
:101AE000200555F826504E07F70E0F26BE40B54389
:101AF000CF1000F1200646F82750CE1000F1200547
:101B000055F8265045EA0304CE1000F1200545F8AB
:101B10002640F0BD41837047018370471CB5012109
:101B2000072004F09FF84FF40070009001208DF81A
:101B3000040000208DF8060003208DF80500012028
:101B40008DF8070069460248FFF779FF1CBD0000C9
:101B50000004024000BFFEE718B50246002003E083
:101B6000135C0DF80030401C8842F9DB9DED000A43
:101B700018BD03B56A46002004E013780B70521CB0
:101B8000491C401C0428F8D30CBDB4EEE00AF1EE69
:101B900010FA01DDB0EE600AB4EEC10AF1EE10FAFF
:101BA00001D2B0EE410A704710B5FE4CB422214676
:101BB000FD4804F007FA20460068FC4988427CD1C1
:101BC000204690ED010AFA4880ED000A204690ED8B
:101BD000020AF74880ED010A204690ED030AF44816
:101BE00080ED020A204690ED040AF14880ED030AD8
:101BF000204690ED050AEE4880ED040A204690ED5F
:101C0000060AEB4880ED050A204690ED070AE848F1
:101C100080ED060A204690ED080AE54880ED070AA7
:101C2000204690ED090AE24880ED080A204690ED32
:101C30000A0ADF4880ED090A204690ED0B0ADC48CD
:101C400080ED0A0A204690ED0C0AD94880ED0B0A77
:101C5000204690ED0D0AD64880ED0C0A204690ED06
:101C60000E0AD34880ED0D0A204690ED0F0AD048A9
:101C700080ED0E0A204690ED100ACD4880ED0F0A47
:101C8000204690ED110ACA4880ED100A204690EDDA
:101C9000120AC74880ED110A204690ED130AC44885
:101CA00080ED120A204690ED140AC14880ED130A17
:101CB000204690ED150ABE4800E080E080ED140A51
:101CC000204690ED160ABA4880ED150A204690EDA0
:101CD000170AB74880ED160A204690ED180AB44856
:101CE00080ED170A204690ED190AB14880ED180AD8
:101CF000204690ED1A0AAE4880ED190A204690ED74
:101D00001B0AAB4880ED1A0A204690ED1C0AA84831
:101D100080ED1B0A204690ED1D0AA54880ED1C0AA7
:101D2000204690ED1E0AA24880ED1D0A204690ED47
:101D30001F0A9F4880ED1E0A204690ED200A9C480D
:101D400080ED1F0A204690ED210A994880ED200A77
:101D5000204690ED220A964880ED210A204690ED1B
:101D6000230A934880ED220A204690ED240A9048E9
:101D700080ED230A204690ED250A8E4880ED000A6A
:101D8000204690ED260A8B4880ED010A204690ED12
:101D9000270A884880ED020A204690ED280A8548E7
:101DA00080ED030A204690ED290A824880ED040A5E
:101DB000204690ED2A0A7F4880ED050A62E17B48C3
:101DC000784908609FED7C0A084680ED010A784852
:101DD00080ED000A9FED780A084680ED020A7448FB
:101DE00080ED010A9FED740A084680ED030A7048F1
:101DF00080ED020A9FED700A084680ED040A6C48E7
:101E000080ED030A9FED6C0A084680ED050A6848DC
:101E100080ED040A9FED680A084680ED060A6448D2
:101E200080ED050A9FED640A084680ED070A6048C8
:101E300080ED060A9FED600A084680ED080A5C48BE
:101E400080ED070A9FED5C0A084680ED090A5848B4
:101E500080ED080A9FED580A084680ED0A0A5448AA
:101E600080ED090A9FED540A084680ED0B0A5048A0
:101E700080ED0A0A9FED500A084680ED0C0A4C4896
:101E800080ED0B0A9FED4C0A084680ED0D0A48488C
:101E900080ED0C0A9FED480A084680ED0E0A444882
:101EA00080ED0D0A9FED440A084680ED0F0A404878
:101EB00080ED0E0A9FED400A084680ED100A3C486E
:101EC00080ED0F0A9FED3C0A084680ED110A384864
:101ED00080ED100A9FED380A084680ED120A34485A
:101EE00080ED110A9FED340A084680ED130A304850
:101EF00080ED120A9FED300A084680ED140A2C4846
:101F000080ED130A9FED2C0A084680ED150A28483B
:101F100080ED140A9FED280A084680ED160A244831
:101F200080ED150A9FED240A084680ED170A204827
:101F300080ED160A9FED200A084680ED180A1C481D
:101F400080ED170A9FED1C0A084680ED190A184813
:101F500080ED180A9FED180A084680ED1A0A144809
:101F600080ED190A9FED140A084680ED1B0A1048FF
:101F700080ED1A0A9FED100A084680ED1C0A0C48F5
:101F800080ED1B0A9FED0C0A084680ED1D0A0848EB
:101F900080ED1C0A9FED080A084680ED1E0A0448E1
:101FA0000CE00000F862002004000E08A55A5AA5B3
:101FB00028610020445F00200000000080ED1D0A21
:101FC0001FED030A084680ED1F0A2F4880ED1E0A08
:101FD0001FED070A084680ED200A2B4880ED1F0AF6
:101FE0001FED0B0A084680ED210A274880ED200AE4
:101FF0001FED0F0A084680ED220A234880ED210AD2
:102000001FED130A084680ED230A1F4880ED220ABF
:102010001FED170A084680ED240A1B4880ED230AAD
:102020001FED1B0A084680ED250A184880ED000ABE
:102030001FED1F0A084680ED260A144880ED010AAC
:102040001FED230A084680ED270A104880ED020A9A
:10205000B7EE000A084680ED280A0C4880ED030A16
:10206000B7EE000A084680ED290A084880ED040A08
:10207000B7EE000A084680ED2A0A044880ED050AFA
:1020800005F03AF910BD000028610020445F0020EF
:1020900010B580216B2000F043F8962005F04EFD2E
:1020A0000321682000F03CF8962005F047FD002150
:1020B0006B2000F035F80F2005F040FD10216A205C
:1020C00000F02EF80F2005F039FD00216C2000F003
:1020D00027F80F2005F032FD0021192000F020F82C
:1020E0000F2005F02BFD0221372000F019F80F20FA
:1020F00005F024FD03211A2000F012F80F2005F04E
:102100001DFD10211B2000F00BF80F2005F016FD1F
:1021100010211C2000F004F8052005F00FFD10BD73
:1021200070B505460C464FF400610748FFF7F2FC16
:10213000284603F0B5FE204603F0B2FE4FF40061DE
:102140000148FFF7E9FC70BD0004024000BFFEE754
:1021500030B505460C4622460021284600F001F81D
:1021600030BD2DE9F04105460B469446002700247A
:1021700002E03F021F43641C042CFAD3604605F0C2
:102180000306294646B1344603E001F8013B401EF0
:10219000641C08B1042CF8D30A4601E080C2001F79
:1021A0000428FBD2114602E001F8013B401E002842
:1021B000FAD1BDE8F081000010B59FED684A20EE2D
:1021C000044A24EE004ADFED664A04EE804ADFED61
:1021D000654A34EE244AB0EE442A9FED604A20EE70
:1021E000844A24EE204ADFED5E4A04EEA04ADFED89
:1021F0005D4A34EE244AF0EE442A9FED584A21EE1F
:10220000044A24EE014ADFED564A04EE814ADFED2E
:10221000554A34EE244AB0EE443A9FED504A21EE3E
:10222000844A24EE214ADFED4E4A04EEA14ADFED56
:102230004D4A34EE244AF0EE443A9FED4B4A22EEEA
:10224000044ABDEEC44A14EE100A484991ED084A0A
:10225000BDEEC44A14EE101A0844454908609FEDCB
:10226000424A22EE844ABDEEC44A14EE100A3F49A7
:1022700091ED084ABDEEC44A14EE101A08443C49D8
:1022800048609FED394A23EE044ABDEEC44A14EE7D
:10229000100A364991ED084ABDEEC44A14EE101AF0
:1022A0000844334988609FED304A23EE844ABDEEEE
:1022B000C44A14EE100A2D4991ED084ABDEEC44AF5
:1022C00014EE101A08442A49C8600846006840F213
:1022D000EE21884202DD084625490860244840680E
:1022E00040F2EE21884202DD08462149486020483C
:1022F000806840F2EE21884202DD08461C49886071
:102300001B48C06840F2EE21884202DD08461849A9
:10231000C86017480068642802DA6420144908601D
:1023200013484068642802DA642011494860104864
:102330008068642802DA64200D4988600C48C0680F
:10234000642802DA64200A49C860094CE368A2687C
:102350006168206803F09CFA10BD0000C5DB14BB67
:102360006C7CC63D7407F13D00007A44645F002038
:10237000985F00207047000070B5002100230F22F5
:10238000C4781CB3174C246804F4E064C4F5E0641A
:10239000C4F30721C1F10404E3B20A4144789C402C
:1023A000E1B28478144021430C07210E0E4C0578CD
:1023B0006155047804F01F050124AC4005786D11C7
:1023C000AD0005F1E025C5F8004109E0047804F00E
:1023D0001F050124AC40054D0678761145F82640CE
:1023E00070BD00000CED00E000E400E080E100E0E2
:1023F00002490143024A1160704700000000FA05DB
:102400000CED00E07047000010B50348006810B103
:1024100001480068804710BD3000002070B50446B8
:1024200000F0BCF80020454908704549087045494E
:1024300008704549086045490860454908704549A4
:102440000870454908704549086045490860454994
:10245000086045490870454800680A21B0FBF1F062
:10246000434908604348006858B14348056845B18E
:102470004048066803E0761E002028602D1D002ECF
:10248000F9D100203D4908603D4908603D49086098
:102490003D4908603D4908603D4908603D49086084
:1024A0003D49087001F020FE01F05AFE204601F07F
:1024B000B3FB208800B170BD204601F013FC2088DA
:1024C00000B1F8E7204601F019FC208800B1F2E7DE
:1024D000204601F07BFC208800B1ECE7204601F0AB
:1024E00033FE208800B1E6E7204601F09BFF2088FC
:1024F00000B1E0E7204602F067FA208800B1DAE791
:10250000204601F0B7FB208800B1D4E7204602F056
:10251000D1FE208800B1CEE7204602F099F920884C
:1025200000B1C8E7204602F021FF208800B1C2E7D1
:1025300001F09CFAFFF766FF00BFBCE744000020F3
:102540004500002078000020D0000020D4000020AA
:102550005E0000205F000020600000206C00002072
:10256000700000207400002080000020AC8E000865
:102570007C0000207C8E0008788E0008240000205B
:10258000280000202C000020300000203400002013
:10259000380000203C000020AE0000200648006803
:1025A0000649096800EB8100054908600846006893
:1025B00020F0070008607047788E00087C8E0008C5
:1025C000D800002008480078012800D0704707484C
:1025D0000078FA2800DBF9E704480078401C03493A
:1025E000087000BFF2E70000450000204400002012
:1025F00010B500242D480078012800D010BD00BF80
:10260000FDF746FE044600BF2948007828B900BF00
:102610002046FDF741FE00BFF0E725480078401E48
:102620002349087008460078002805DD00BF2046D1
:10263000FDF732FE00BFE1E71E480078002805DD07
:1026400000BF2046FDF728FE00BFD7E701F038FDA8
:10265000194908700846007800EB4000174951F806
:102660002000174908600846006816490968884232
:1026700005D100BF2046FDF70FFE00BFBEE71048A2
:102680000068D0F89000401C0D490968C1F890001E
:102690000D480068401C0C490860FDF7D9FE00BFDA
:1026A0002046FDF7F9FD00BF00BFA7E74500002069
:1026B00044000020780000205F0000205C13002010
:1026C000D4000020D0000020A400002010B5002479
:1026D0001F480078002800DD10BD1E480078002843
:1026E00000DDF9E700BFFDF7D3FD044600BF01F0B0
:1026F000E7FC194908700846007800EB40001749CC
:1027000051F8200016490860084600681549096814
:10271000884205D100BF2046FDF7BEFD00BFDBE7C4
:102720000F480068D0F89000401C0D490968C1F8B6
:1027300090000D480068401C0B490860FDF783FEBF
:1027400000BF2046FDF7A8FD00BF00BFC4E70000A2
:1027500044000020780000205F0000205C1300206F
:10276000D4000020D0000020A400002070B5044652
:10277000002518480078002803DD46F662502080C6
:1027800070BD15480078012803D045F68960208087
:10279000F6E712480078FA2803DB45F2092020808A
:1027A000EEE700BF00BFFDF773FD054600BF00BFA9
:1027B0000A480078401C0949087001F087FD00BFF5
:1027C00000BF2846FDF768FD00BF00BF0020208045
:1027D00000BFD5E74400002045000020780000201D
:1027E0002DE9F04105460C461646002700BF00BF04
:1027F000FDF74EFD074600BF00BF012D03D00020AE
:102800000D49087002E001200B49087014B10B4813
:10281000046006E00A4800680A21B0FBF1F00749AD
:10282000086000BF00BF3846FDF736FD00BF00BF9F
:1028300000203080BDE8F081800000207C00002076
:10284000AC8E000870B504460025204800780028AA
:1028500003DD46F66550208070BD1D4800780128D4
:1028600003D045F689602080F6E71A48007818B949
:1028700046F664502080EFE700BF00BFFDF708FD7B
:10288000054600BF00BF13480078401E114908707C
:102890000846007800280ADD00BF00BF2846FDF783
:1028A000FBFC00BF00BF46F663502080D4E701F078
:1028B0001BFD00BF00BF2846FDF7EEFC00BF00BFB8
:1028C000FFF704FF0020208000BFC5E74400002080
:1028D00045000020780000202DE9F04104460E4616
:1028E00017461D464FF0000818480078002804DD00
:1028F00042F6E1602880BDE8F0811CB945F6C3507E
:102900002880F8E700BF00BFFDF7C2FC804600BF8B
:1029100000BF0F482060276200206062666004F1FB
:10292000080001F0E7FA204601F064FD094800883C
:10293000401C0849088000BF00BF4046FDF7ACFCC2
:1029400000BF00BF0020288000BFD4E74400002063
:1029500053454D41880000202DE9F04788B00646D8
:10296000894690461C46109D4FF0000A604800784A
:10297000002806DD46F2AE102880002008B0BDE831
:10298000F08726B945F6C35028800020F6E7B8F155
:10299000000F03D0B8F5004F02D100E000BF04E003
:1029A00045F6256028800020E8E700BF51493068DF
:1029B000884204D045F6C45028800020DEE70CB1E0
:1029C0000020206000BF00BFFDF762FC824600BF10
:1029D00000BF306A88B1306A401E30620CB1706A44
:1029E0002060376A00BF00BF5046FDF755FC00BFAE
:1029F00000BF002028803846C0E708F4004060B1DE
:102A0000376A00BF00BF5046FDF746FC00BF00BF5D
:102A100046F2B01028803846B0E7374800780028E2
:102A20000BDD00BF00BF5046FDF736FC00BF00BF06
:102A300046F6635028800020A0E74B460622314628
:102A4000684601F0CFF900BF00BF5046FDF724FCF7
:102A500000BF00BFFFF73AFE00BF00BFFDF718FC44
:102A6000824600BF00BF2548006890F8350030B1AD
:102A700001280CD002281AD0032821D110E01CB163
:102A80001E480068006C20600020288024E01CB1F3
:102A90001A480068006C206046F2A91028801BE0EC
:102AA0000CB10020206047F2D920288014E01CB12E
:102AB00012480068006C206045F6C25028800BE088
:102AC00046F62E60288000BF00BF5046FDF7E4FBAD
:102AD00000BF00BF002051E700BF376A00BF00BF42
:102AE0005046FDF7D9FB00BF00BF384646E700005F
:102AF0004400002053454D4178000020D0000020C4
:102B00002DE9F04105460E4614462DB945F6C35051
:102B100020800020BDE8F0814EB1B6F5007F07D0DF
:102B2000B6F5004F05D0B6F5024F04D102E000BF64
:102B300000BF00BF04E045F6256020800020E9E7E3
:102B400000BF0A492868884204D045F6C450208056
:102B50000020DFE7FEF768F880462346424631460C
:102B6000284601F06BFC07463846D3E753454D41F4
:102B700010B5044612480078E8B901F0A1FA1149ED
:102B8000087008460078104908700E48007800EB7D
:102B900040000E4951F820000D49086008460068C1
:102BA0000C490860012006490870FDF73BFC43F61C
:102BB0009920208002E045F68A60208010BD000048
:102BC000450000205F0000205E0000205C13002014
:102BD000D4000020D00000202DE9F04107464FF03E
:102BE000000800BF00BFFDF753FB804600BF00BFD9
:102BF00000203B4908803B4908603B4908603B494D
:102C000008603B4908603B49088100BF00BF40465F
:102C1000FDF742FB00BF00BF00BF00BFFDF738FB60
:102C2000804600BF00BF3448046800BF00BF404674
:102C3000FDF732FB00BF00BF21E000BF00BFFDF782
:102C400027FB804600BF00BF00207834E06320608F
:102C50002063A061A082E0826062A062FDF7E4FFD1
:102C60002062783C04F164060020B081D4F8BC40B6
:102C700000BF00BF4046FDF70FFB00BF00BF002CA8
:102C8000DBD100BF00BFFDF703FB804600BF00BFE4
:102C90001A48056800BF00BF4046FDF7FDFA00BFB7
:102CA00000BF12E000BF00BFFDF7F2FA804600BF90
:102CB00000BF05F120060020B081AD6900BF00BF54
:102CC0004046FDF7E9FA00BF00BF002DEAD102F04F
:102CD00005FA02F047FC00203880BDE8F0810000D2
:102CE0008E000020A0000020B4000020C0000020C2
:102CF0007000002050130020A80000206400002075
:102D0000F8B5044600266946324800F0E7FCBDF8F5
:102D1000000018B1BDF800002080F8BD6A4600210F
:102D2000022000F03BFDBDF8000018B1BDF8000026
:102D30002080F2E700BF00BFFDF7AAFA064600BFF9
:102D400000BF00202449086000BF00BF3046FDF7E7
:102D5000A3FA00BF00BF0025204800682049096889
:102D6000884205D91D4800681D490968B0FBF1F586
:102D700025B91A4800680A21B0FBF1F56A4600211E
:102D8000284600F00BFD6946124800F0C1F9BDF875
:102D9000000018B1BDF800002080BEE700BF00BFF2
:102DA000FDF776FA064600BF00BF00200D49086017
:102DB000094800680C49086001200C49087000BFF0
:102DC00000BF3046FDF768FA00BF00BF002020803A
:102DD00000BFA2E7E417002090000020AC8E00089E
:102DE000948E0008A0000020940000209C00002089
:102DF00010B50348006810B101480068804710BD55
:102E0000340000202DE9FF4F85B004469046DDE9EF
:102E10001995159F139E00200290614800780028A4
:102E200005DD47F24A10288009B0BDE8F08F1CB9D3
:102E300047F2AD102880F7E7B8F1000F03D147F251
:102E40004F102880F0E71EB946F62F602880EBE788
:102E500054480068874203D246F630602880E3E792
:102E60001498B84203D346F631602880DCE7129804
:102E7000402803D346F273202880D5E712983F28D4
:102E800006D14948844203D046F273202880CBE71C
:102E9000204601F0A9FD0020288009F0010088B13A
:102EA00009F0020070B1B3460020049007E0002052
:102EB000CBF800000BF1040B0498401C049004981C
:102EC000B842F4D3149806EB80000390CDE9007962
:102ED00032464046039B089900F0D2FA8346C4F874
:102EE00028800898E06206982062129884F83700DB
:102EF000C4F800B00398A06017986065179818B9D7
:102F00002A480068A06501E01798A06518986060DD
:102F10006662A763A4F83C904FF0000A08E0002125
:102F200004F17C0040F82A100AF1010000F0FF0AC9
:102F3000BAF1000FF3D004F16400169900F03EFFDF
:102F4000204600F039F800BF00BFFDF7A1F902905C
:102F500000BF00BF94F8370001F0D2F8204601F01E
:102F600047F9204601F0F6FC11480088401C104942
:102F7000088010480078012807D000BF00BF0298E1
:102F8000FDF78AF900BF00BF4EE700BF00BF0298FF
:102F9000FDF782F900BF00BFFFF798FB00BF43E7D2
:102FA00044000020A88E00088C1200207C00002025
:102FB000AC0000204500002010B50446034800681E
:102FC00018B1204601490968884710BD2400002037
:102FD00070B504460D46002643480078002803DDFE
:102FE00047F24E10288070BD4048844203D147F21A
:102FF0004C102880F7E77CB900BF00BFFDF748F907
:10300000064600BF00BF3A48046800BF00BF304614
:10301000FDF742F900BF00BF00BF00BFFDF738F960
:10302000064600BF00BF94F8360008282DD2DFE81E
:1030300000F004090E10080A0F11204601F018F9DB
:103040002EE02DE000BF204602F02CF828E000BF63
:1030500000BF00BF204602F025F894F8340008288D
:1030600010D2DFE800F004070508090A0B0600BFCC
:1030700000BF08E000BF00BF00BF00BF204600F057
:1030800071FF00E000BF00BF0AE000BF00BF304694
:10309000FDF702F900BF00BF46F62D602880A2E7C9
:1030A00000BF04F1640000F067FE204600F024F841
:1030B000204601F067FC0F480088401E0D4908803B
:1030C000204601F091FCFF2084F8360000BF00BFCD
:1030D0003046FDF7E1F800BF00BF00202880FFF771
:1030E000F5FA00BF7FE70000440000208C120020AA
:1030F000D0000020AC00002010B504460348006852
:1031000018B1204601490968884710BD28000020F1
:1031100070B504460D46002615480078002803DDEA
:1031200047F25510288070BD00BF00BFFDF7B0F812
:10313000064600BF00BF1CB10E48006884420AD199
:1031400000BF00BF3046FDF7A7F800BF00BF47F241
:1031500057102880E7E700BF00BF3046FDF79CF816
:1031600000BF00BF2946204601F0B0FC00BFDAE7EF
:1031700044000020D000002010B504460348006839
:1031800018B1204601490968884710BD2C0000206D
:103190002DE9F04780460E4614461D464FF00009C3
:1031A0006F480078002805DD46F2AE102880002028
:1031B000BDE8F0871EB1B6F5004F02D100E000BFB8
:1031C00004E045F6256028800020F1E700BF0CB13F
:1031D0000020206000BF00BFFDF75AF8814600BF05
:1031E00000BF60480068406CA8B35E480068406C4F
:1031F000401E5C49096848645A480068476C1CB125
:1032000058480068006C2060FDF70EFD55490968BC
:10321000096C401A53490968C1F8A4005148006874
:10322000D0F8A8004F490968D1F8A410884207D205
:103230004C480068D0F8A4004A490968C1F8A800C1
:1032400000BF00BF4846FDF727F800BF00BF0020C1
:1032500028803846ACE7FFE706F4004058B100BFCD
:1032600000BF4846FDF718F800BF00BF46F2B01097
:10327000288000209CE73C48007800280BDD00BF38
:1032800000BF4846FDF708F800BF00BF46F6635090
:10329000288000208CE7434607220021084600F0E2
:1032A000A1FD00BF00BF4846FCF7F6FF00BF00BF0E
:1032B000FFF70CFA00BF00BFFCF7EAFF814600BF32
:1032C00000BF2848006890F8350020B1012826D0BA
:1032D000032834D12CE0FCB122480068006C206047
:1032E000FDF7A2FC1F490968096C401A1D490968CD
:1032F000C1F8A4001B480068D0F8A8001949096863
:10330000D1F8A410884207D216480068D0F8A4006B
:1033100014490968C1F8A8000020288013E01CB1F6
:1033200010480068006C206046F2A91028800AE06E
:103330000CB10020206047F2D920288003E046F637
:103340002E60288000BF00BF06480068476C00BFA1
:1033500000BF4846FCF7A0FF00BF00BF384627E784
:1033600044000020D0000020780000202DE9F0412A
:1033700006460D4614461DB1B5F5004F02D100E0DA
:1033800000BF05E045F6256020800020BDE8F08103
:1033900000BFFDF749FC8046234642462946304699
:1033A00001F020FC07463846F0E700002DE9F04721
:1033B00005460E4617461C464FF0000A2E48007878
:1033C000002804DD47F259102080BDE8F0871EB9BF
:1033D00046F2D5202080F8E71FB946F2D52020809C
:1033E000F3E700BF00BFFCF753FF824600BF00BFFA
:1033F0000DB922480568286868B900BF00BF50466B
:10340000FCF74AFF00BF00BF00203060386047F281
:1034100052102080D9E795F83C0000F0010068B90F
:1034200000BF00BF5046FCF737FF00BF00BF0020C1
:103430003060386047F254102080C6E700BF00BFFC
:103440005046FCF729FF00BF00BF4FF00008D5F839
:10345000249003E009F1040908F10108D9F80000FB
:103460000028F7D0C6F80080A86BA0EB08003860F1
:103470000020208000BFA8E744000020D0000020EA
:10348000F0B50446DDE9055602EB850020F00700A3
:103490004FF0000C071F3846C7F800C04FF4805C9F
:1034A000071F3846C7F800C04FF0150C071F3846F5
:1034B000C7F800C04FF0140C071F3846C7F800C00B
:1034C0004FF0130C071F3846C7F800C04FF0120C1E
:1034D000071F3846C7F800C04FF0110C071F3846C9
:1034E000C7F800C04FF0100C071F3846C7F800C0DF
:1034F0004FF0090C071F3846C7F800C04FF0080C02
:10350000071F3846C7F800C04FF0070C071F3846A2
:10351000C7F800C04FF0060C071F3846C7F800C0B8
:103520004FF0050C071F3846C7F800C04FF0040CD9
:10353000071F3846C7F800C04FF0030C071F384676
:10354000C7F800C04FF0020C071F3846C7F800C08C
:103550004FF0010C071F3846C7F800C04FF0000CB1
:10356000071F3846C7F800C04FF0807C071F384659
:10357000C7F800C0071F38463C60DFF85CC1071F72
:103580003846C7F800C04FF0123C071F3846C7F84E
:1035900000C04FF0033C071F3846C7F800C04FF08B
:1035A000023C071F3846C7F800C0071F38463B607B
:1035B000071F384639604FF0310C071F3846C7F8EF
:1035C00000C04FF0300C071F3846C7F800C04FF05E
:1035D000290C071F3846C7F800C04FF0280C071FFA
:1035E0003846C7F800C04FF0270C071F3846C7F809
:1035F00000C04FF0260C071F3846C7F800C04FF038
:10360000250C071F3846C7F800C04FF0240C071FD1
:103610003846C7F800C04FF0230C071F3846C7F8DC
:1036200000C04FF0220C071F3846C7F800C04FF00B
:10363000210C071F3846C7F800C04FF0200C071FA9
:103640003846C7F800C04FF0190C071F3846C7F8B6
:1036500000C04FF0180C071F3846C7F800C04FF0E5
:10366000170C071F3846C7F800C04FF0160C071F8D
:103670003846C7F800C04FF0113C071F3846C7F85E
:1036800000C04FF0103C071F3846C7F800C04FF08D
:10369000093C071F3846C7F800C04FF0083C071F19
:1036A0003846C7F800C04FF0073C071F3846C7F838
:1036B00000C04FF0063C071F3846C7F800C04FF067
:1036C000053C071F3846C7F800C04FF0043C071FF1
:1036D0003846C7F800C0F0BDCD4B000870B50546B0
:1036E0000C460A480078002803DD47F25D10208070
:1036F00070BD0748854203D147F25B102080F7E791
:103700002146284601F050FB00BFF1E744000020AD
:103710008C12002010B51D48006810B11B480068CD
:103720008047FDF781FA044619480068194909687D
:10373000884215D016480068D0F89800201A14491D
:103740000968C1F8940012480068D0F89C0010493C
:103750000968D1F8941008440D490968C1F89C0023
:103760000C480068C0F8984009480068D0F8B400D8
:1037700009490968884205D2074800680449096870
:10378000C1F8B40000200449086010BD38000020D2
:10379000D0000020D4000020740000202DE9F0416A
:1037A00005460E46144600272A480078002804DD06
:1037B00047F275202080BDE8F08127480078002876
:1037C00003DD46F663502080F5E736B1022E05D0C2
:1037D000042E0AD0082E09D101E000BF00BF1DB998
:1037E00047F27E202080E6E704E003E045F625600E
:1037F0002080E0E700BF00BF00BFFCF749FD07469F
:1038000000BF00BF01201549096881F83600234632
:10381000324629461148006801F066FB208838B11D
:1038200000BF00BF3846FCF737FD00BF00BFC2E74E
:103830000A48006800F01CFD00BF00BF3846FCF7D6
:103840002BFD00BF00BFFEF741FF0020208000BF1E
:10385000B1E700004400002078000020D0000020E4
:103860002DE9FF5F05460E4617469846DDE90EA492
:10387000002000905D480078002804DD47F27520A4
:103880002080BDE8FF9F5A480078002803DD46F6F7
:1038900063502080F5E70AF00E0BBBF1000F09D052
:1038A000BBF1020F07D0BBF1040F10D0BBF1080F22
:1038B0000ED101E000BF00BFB8F1000F06D12FB953
:1038C00026B91DB947F27E202080DAE704E003E044
:1038D00045F625602080D4E700BF2AF01E0008B11D
:1038E000012000E0002003900398012803D145F651
:1038F00025602080C5E7CAF3001002900298C0B985
:10390000B8F57A7F03D347F27B202080B9E73B2FBD
:1039100003DD47F27A202080B3E73B2E03DD47F238
:1039200079202080ADE7632D12DD47F278202080DA
:10393000A7E742F20F70864203DD47F2792020802C
:103940009FE7B5F57A7F03DB47F27820208098E780
:103950002848D0F800904FF4FA70B0FBF9F04044DA
:1039600000FB09F04FF47A71B0FBF1F14FF46160A4
:103970006843C6EB061200EB8200384400FB0910D6
:103980000190019860B300BF00BFFCF781FC00907C
:1039900000BF00BF01201849096881F8360023469E
:1039A0005A4615480199006801F09EFA208838B1FE
:1039B00000BF00BF0098FCF76FFC00BF00BF60E7CE
:1039C0000D48006800F054FC00BF00BF0098FCF7F1
:1039D00063FC00BF00BFFEF779FE0020208002E0FC
:1039E00047F27E20208000BF4BE70000440000200B
:1039F00078000020AC8E0008D000002008B500F050
:103A00002BF86A4600210E48FFF7B0FC0D490978F3
:103A100001EB41010C4A02EB810000F083FC0B48F2
:103A20000068401E094908600846006838B908481F
:103A3000006808606A4600210648FFF797FC08BD49
:103A4000201700205E0000205C130020CC00002026
:103A5000C8000020E417002010B50348006810B12A
:103A600001480068804710BD3C000020244A2549D9
:103A7000254A264A2649274A2748284A284A294AC1
:103A8000294A2A482A482B4A2B482C4A2C482D4A96
:103A90002D482E482E482F482F4A304A304A314868
:103AA000314A324A3248334833483448344835483A
:103AB0003548364A364A374A374A38483848394806
:103AC000394A3A4A3A4A3B483B483C483C493D48D7
:103AD0003D4A3E4A3E4A3F4A3F4A404A404A4148A0
:103AE000414A424A42484348434A444A4448454A74
:103AF000454A46484648474800BF00BF00BF704798
:103B0000F08E000858900008F18E0008F28E000830
:103B1000F48E0008F88E0008FC8E0008F98E00086C
:103B2000248F0008258F0008268F0008288F0008A2
:103B30002A8F00082E8F0008308F0008508F000851
:103B4000528F0008548F0008568F0008588F0008C5
:103B50005A8F00085C8F0008888F0008898F000842
:103B60008A8F00088C8F00088E8F00088F8F0008C6
:103B7000908F0008928F0008948F0008968F00089D
:103B8000988F00089A8F00089C8F0008CC8F00083F
:103B9000CD8F0008CE8F0008CF8F0008D08F00088F
:103BA000D28F0008D48F0008FC8F0008FD8F00081A
:103BB000FE8F0008FF8F00080090000802900008A8
:103BC0000490000808900008099000080A90000876
:103BD0000B9000080C9000080D9000080E90000853
:103BE0000F90000810900008129000081390000831
:103BF000149000081690000818900008199000080A
:103C00001C90000850900008519000085290000845
:103C100054900008569000080021034A1160034A9E
:103C20001180018070470000480000204C000020F7
:103C3000002400BF19E000BF00BFFCF729FB0446C9
:103C400000BF00BF09480068401C084908600848D8
:103C50000068401C0649086000BF00BF2046FCF712
:103C60001BFB00BF00BFFEF7CFFBE4E740000020D6
:103C70009000002010B58AB0044600200E4908606C
:103C80000B2000210591CDE90704069108460B4958
:103C900009680B4A12680B4B1B68CDE90132CDE96C
:103CA00003103F200023084A08A100900C48FFF7AA
:103CB000A9F80AB010BD000040000020548E000892
:103CC000508E00084C8E0008313C000875432F4F81
:103CD000532D4949492049646C65205461736B0038
:103CE0008C1200200021034A1160034A11800180D8
:103CF00070470000500000205400002070B50146BD
:103D00001A4D2D681DB945F21E750D8070BD184DF8
:103D10002D881DB945F21D750D80F7E7134D2868F4
:103D20002A681032124D2D886D1EACB2002308E0B7
:103D30000260002545600581C560103010325D1CB1
:103D4000ABB2A342F4DB0025056045600581C56088
:103D5000064D2D68074E3560054D2D88B580002530
:103D6000F58035810D8000BFD0E700008C8E000803
:103D7000848E00085013002010B5014648894B89F5
:103D8000002B17DD0A680C4B1B6813600A4C4B684C
:103D900023602346DB884C891B1B074CE3802346AA
:103DA0009B884C892344044CA38000234B818B8146
:103DB0000B604B6010BD00005013002001810022F9
:103DC0004281828102604260704700000021034A04
:103DD0001160034A118001807047000058000020E4
:103DE0005C0000202DE9F04105460C4616461F46B2
:103DF0001548006880F8346000201349096881F88C
:103E0000350039461048006800F088FD6CB104F1B7
:103E10000808EC60012229460B48006800F016F8FB
:103E20002946404600F06BF806E000200649096884
:103E3000C88705490968086303480168204600F0FF
:103E400019F8BDE8F0810000D000002010B5C2874D
:103E5000016300230AE000244C600C600C614C619B
:103E60000C83CC61886020315C1CA3B29342F2DBEE
:103E700010BD000030B548B14568C1F8C05000F130
:103E80000804226893681D6AC56113E091F83450F4
:103E9000022D02D0072D08D103E007A5C1F8C050BC
:103EA00007E007A5C1F8C05003E008A5C1F8C0505D
:103EB00000BF00BF30BD00005461736B2051000093
:103EC0005461736B2053656D0000000020000000FA
:103ED00030B507A5C1F8C05000F1080422681AB136
:103EE00093681D6AC56101E001A5C56130BD000090
:103EF0002000000000210160416001817047F0B5A1
:103F00008E6896F8375007893FB901270781002747
:103F10004F600F600160416023E007897F1C0781CB
:103F2000026806E0946894F83770AF4200DD02E062
:103F30005268002AF6D100BF32B900274F604368AB
:103F40000B60596041600CE017682FB911600027C1
:103F50000F604A60016004E013680B604A605960BA
:103F60001160F0BD2DE9F0410446256BE68F0AE0B3
:103F7000D5F80C8008F108072946384600F00AF801
:103F80002035701E86B2002EF2DC0020E087206310
:103F9000BDE8F08110B50489012C03D10024046030
:103FA000446011E00C6824B94A680024146002607F
:103FB0000AE04C6824B90B6800245C60436003E0AD
:103FC0000B684A685A6013600489641E04810024E7
:103FD0004C600C6010BD2DE9F84306460C461746B0
:103FE0009846089D94F83600082850D2DFE800F083
:103FF0000405080906072B2C00BF00BF00BF47E0DF
:1040000000BF94F83400032807D143463A462146BE
:104010003046009500F03FF803E0E765A4F86080C3
:10402000256436B12046FFF79DFF21463046FFF755
:104030004FFF204600F03CFD00203434A07060703B
:1040400004F8340924E000BF94F83400032807D1B1
:1040500043463A4621463046009500F01CF803E0FE
:10406000E765A4F860802564204601F01BF836B1AE
:104070002046FFF777FF21463046FFF729FF04204F
:104080003434A0700020607004F8340900E000BFF0
:1040900000BFBDE8F883F0B50446059E086BCD8FE0
:1040A0000AE0C768A74204D1046142610383C66184
:1040B00004E020306F1EBDB2002DF2DC00BFF0BD69
:1040C00070B50025074C03E005F12000C5B2241DA2
:1040D00020680028F8D02068FCF7E5F82844C5B22D
:1040E000284670BD1C000020002004E00021034A87
:1040F00042F82010401C0228F8D370471C00002012
:1041000030B5420900F01F030121C3F11F04A14093
:10411000034C54F822400C43014D45F8224030BD79
:104120001C00002030B5420900F01F030121C3F13B
:104130001F04A140034C54F822408C43014D45F824
:10414000224030BD1C0000200021034A1160034AB8
:10415000118001807047000064000020680000208A
:1041600000210AE001EB4102054B03EB8200002233
:104170000281026042604A1CD1B24029F2D37047EA
:104180005C13002010B5044694F83700FFF7B8FF21
:1041900094F8370005490978884203D1204600F099
:1041A00027F802E0204600F003F810BD5E00002072
:1041B00010B590F8373003EB43030C4C04EB83014C
:1041C0000B893BB901230B810023C36003610860A5
:1041D000486009E00B895B1C0B810B68C3600023FE
:1041E00003610A681061086010BD00005C130020C4
:1041F00010B590F8373003EB43030B4C04EB83010D
:104200000B893BB901230B810023C3600361086064
:10421000486008E00B895B1C0B810023C3604A687F
:104220000261D060486010BD5C13002010B50146EB
:104230000C8924B1012C03D0022C0CD101E000BF69
:1042400014E008684A6802610024C4601461D06008
:104250000A6048600AE008684A68C36800241C6174
:10426000C4600261D0600B60486000BF00BF10BD39
:104270002DE9F041054695F8370000EB4000124962
:1042800001EB80042F69EE6887B946B900202081D0
:104290002060606095F83700FFF744FF0EE020894A
:1042A000401E208100203061266007E02089401EEA
:1042B0002081FE600EB9676000E037610020286150
:1042C000E860BDE8F08100005C13002010B50448F0
:1042D0000078012803D1FCF7A7FC0249086010BD53
:1042E000780000206C00002010B50A48007880B9E2
:1042F000FCF79AFC08490968441A08480068A0427B
:1043000001D20648046006480068A04201D2044871
:10431000046010BD780000206C00002070000020B8
:104320007400002070B5054600262E48007801284C
:1043300000D070BD00BF00BFFBF7AAFF064600BF5C
:1043400000BF2C683CB900BF00BF3046FBF7A4FF9C
:1043500000BF00BFEDE72448844207D100BF00BF83
:104360003046FBF799FF00BF00BFE2E7A06D10B138
:10437000A06D401EA065A06D38B100BF00BF3046E3
:10438000FBF78AFF00BF00BFD3E72889022807DABE
:1043900000BF00BF3046FBF77FFF00BF00BFC8E78C
:1043A00012480078002807DD00BF00BF3046FBF749
:1043B00073FF00BF00BFBCE72846FFF737FF2C683C
:1043C000606D18B90A480068A06501E0606DA065DD
:1043D00000BF00BF3046FBF75FFF00BF00BF00BF5C
:1043E000A7E70000800000208C1200207800002049
:1043F0007C00002009A1C1610021416108490968D0
:1044000011B90021816105E005490968816104490C
:1044100009684861024908607047000020000000F8
:10442000840000200021034A1160034A11800180AA
:104430007047000084000020880000202DE9FF5F05
:104440000446884691461D460020019000BF00BFEB
:10445000FBF71EFF019000BF00BF04F10807388979
:1044600000284FD10420012804D0022814D00428A9
:1044700034D123E0206AFF280DD100BF00BF01988E
:10448000FBF70AFF00BF00BF46F6C550288000209A
:1044900004B0BDE8F09F22E04FF6FF71206A884229
:1044A0000BD100BF00BF0198FBF7F6FE00BF00BFB5
:1044B00046F6C55028800020EAE710E0206A401C3C
:1044C00058B900BF00BF0198FBF7E6FE00BF00BF70
:1044D00046F6C55028800020DAE700E000BF00BFA4
:1044E000206A401C2062D4F820A0C4F8249000BFA9
:1044F00000BF0198FBF7D0FE00BF00BF002028805E
:104500005046C5E708F4007008B13E8900E0012676
:10451000D7F800B011E0DBF808000290DBF80400E7
:10452000039000231A46CDF8009020460299FFF729
:1045300052FDDDF80CB0701E86B2002EEBD1D4F81F
:1045400020A000BF00BF0198FBF7A6FE00BF00BF80
:1045500008F4004008B9FEF7B9F80020288050465A
:1045600096E7000086B00020009000BF06E0A94951
:104570000968480001AA0021FFF710F9A648007851
:104580000128F4D101A8FEF727FB0027A348006803
:10459000A0490968884205D9A04800689D49096872
:1045A000B0FBF1F727B99D4800680A21B0FBF1F78D
:1045B0002EE1FCF739FB804600BF00BFFBF768FE29
:1045C000009000BF00BF9648006896490860002030
:1045D0009349086000BF00BF0098FBF75DFE00BF75
:1045E00000BF914800688F490968884248D98E48C1
:1045F00000688E49884205D242F210700390012073
:10460000029023E0884800688949884205D24FF427
:104610007A7003900A20029018E083480068854968
:10462000884203D26420039002900FE07E48006825
:104630008149884205D20A2003904FF47A70029093
:1046400004E00120039042F2107002907648016865
:104650000298B1FBF0FA7349039809684843B0FB2C
:10466000FAF042F21071081A744908807448008800
:104670000988884208DA714800887149088003E097
:1046800042F210706D490880FEF7B2FB002500BFB2
:1046900000BFFBF7FDFD009000BF00BF6948046844
:1046A00000BF00BF0098FBF7F7FD00BF00BF26E08A
:1046B00000BF00BFFBF7ECFD009000BF00BF54F847
:1046C0009C0F6060002044F89C0900BF00BF009868
:1046D000FBF7E2FD00BF00BFD4F8A000054400BF17
:1046E00000BFFBF7D5FD009000BF00BFD4F8BC4071
:1046F00000BF00BF0098FBF7CFFD00BF00BF002C3C
:10470000D6D145B34948854205D242F21070059092
:104710004FF0010B1BE04648854205D24FF47A70FA
:1047200005904FF00A0B12E04248854203D2642004
:10473000059083460BE04048854204D20A2005904C
:104740004FF47A7B03E00120059042F2107BB5FB29
:10475000FBF0049003E0002005900120049000BFCE
:1047600000BFFBF795FD009000BF00BF354804680F
:1047700000BF00BF0098FBF78FFD00BF00BF2BE01C
:10478000D4F8A000059948430499B0FBF1F086B233
:1047900042F21070864200D90646A4F88C60B4F844
:1047A0008E00B04201DAA4F88E6001AB04F1AC02D5
:1047B000111D2046FEF7FAFD00BF00BFFBF768FDA4
:1047C000009000BF00BFD4F8BC4000BF00BF0098FD
:1047D000FBF762FD00BF00BF002CD1D11A48007862
:1047E000012805D100201849087001A8FEF7F4F946
:1047F000FCF71AFAA0EB080914480068484502D2F1
:104800001248C0F8009001AA00213846FEF7C6FF02
:10481000CFE60000948E00089C000020AC8E0008BB
:10482000900000209800002094000020801A0600CC
:1048300000093D00005A62020084D7178C00002056
:104840008E000020A80000208A000020A000002088
:1048500010B58AB0044600201F4908601F4908604F
:104860001F4908601F4908701F4908701F480068E9
:1048700020B946F62B6020800AB010BD1C480068A5
:104880001C490968884203D246F62C602080F3E771
:10489000194800783F2803D346F62A602080EBE7CA
:1048A000032000210591CDE907040691084610492F
:1048B0000968124A12680D4B1B68CDE90132CDE937
:1048C00003100D48007800230D4A0EA100901248F5
:1048D000FEF798FA00BFCFE7900000209800002074
:1048E000940000209C0000208A000020988E000880
:1048F000A08E0008A88E0008908E00089C8E0008EC
:104900006545000875432F4F532D4949492053747D
:104910006174205461736B005C16002038B5044646
:104920000D4685B16B4602222946204600F0DCFA8E
:10493000BDF8000018B9032084F8360006E0022014
:1049400084F8360002E0022084F836002046FFF7A3
:104950008FFC38BD0021C0F8B8100949096819B9A1
:104960000021C0F8BC1007E005490968C0F8BC1078
:1049700003490968C1F8B8000149086070470000A0
:10498000A8000020D0F8B820D0F8BC104AB90D4BD0
:10499000196011B10023C1F8B8300023C0F8BC3051
:1049A0000FE029B90023C2F8BC30C0F8B83008E0E5
:1049B000C2F8BC10C1F8B8200023C0F8BC30C0F861
:1049C000B8307047A80000200021044A1160044A52
:1049D0001180044A1160018070470000A800002087
:1049E000AC000020A400002070B504460020206028
:1049F000A0606060E06020616061A061E06129A06A
:104A0000206200206062A062E0622064E065A4F899
:104A10006000002104F16400FFF7D0F9002044F8A1
:104A2000740F6060E060A0822061743C002506E0A5
:104A3000002104F17C0040F82510681CC5B2002D4F
:104A4000F6D000203434206120676067606084F80D
:104A50005600E067A06720814FF0004060610020B1
:104A6000A061E06120626062A4F85800A4F85A00D6
:104A7000E0652066FCF7D8F8064666660020A0666A
:104A8000C4F8800020706070A0704020E0700020AA
:104A9000C4F88400C4F8880004A0C4F88C00343C36
:104AA00070BD00003F5461736B00000020000000E7
:104AB00010B50446204600F0F5FA94F8360000F0F0
:104AC000040010B92046FFF75DFB10BD70B5044629
:104AD0000D46002600BF00BFFBF7DAFB064600BF0D
:104AE00000BF0020288094F8360008285ED2DFE856
:104AF00000F0040506071227394B00BF00BF00BFB6
:104B000000BF00BF3046FBF7C7FB00BF00BF47F246
:104B10005310288055E014F88A0F401E207014F8B6
:104B20008A0928B9002084F836002046FFF7C0FF24
:104B300000BF00BF3046FBF7AFFB00BF00BF40E047
:104B400014F88A0F401E207014F88A0910B9012049
:104B500084F8360000BF00BF3046FBF79DFB00BF66
:104B600000BF2EE014F88A0F401E207014F88A0946
:104B700010B9022084F8360000BF00BF3046FBF7B2
:104B80008BFB00BF00BF1CE014F88A0F401E207092
:104B900014F88A0910B9032084F8360000BF00BF5A
:104BA0003046FBF779FB00BF00BF0AE000BF00BF43
:104BB0003046FBF771FB00BF00BF46F62D60288032
:104BC00070BD00BFFDF782FD00BFF9E708B50448DE
:104BD0000068FEF7D1FA69460020FEF7F9F908BD32
:104BE000D00000202DE9F8430446884617461D46AC
:104BF0004FF0000900BF00BFFBF74AFB814600BF32
:104C000000BF0CB96748046827640020288094F826
:104C10003600082876D2DFE800F004055051060778
:104C2000525300BF00BF00BF0420012804D0022857
:104C300013D0042833D122E0606CFF280CD100BFD0
:104C400000BF4846FBF728FB00BF00BF46F6C55033
:104C500028800020BDE8F88322E04FF6FF71606CE9
:104C600088420BD100BF00BF4846FBF715FB00BFD1
:104C700000BF46F6C55028800020EBE710E0606CCE
:104C8000401C58B900BF00BF4846FBF705FB00BFFA
:104C900000BF46F6C55028800020DBE700E000BFDB
:104CA00000BF606C401C6064666C00BF00BF48467B
:104CB000FBF7F2FA00BF00BF71E000BF00BF00BF0A
:104CC00094F83400072815D100231A4621461846C7
:104CD0000097FFF780F9666C00BF00BF4846FBF7FE
:104CE000DBFA00BF00BF08F4004000284AD1FDF7FE
:104CF000EDFC47E00420012805D0022813D0042849
:104D000033D122E03FE0606CFF280BD100BF00BF31
:104D10004846FBF7C1FA00BF00BF46F6C5502880E1
:104D2000002097E722E04FF6FF71606C88420BD1BC
:104D300000BF00BF4846FBF7AFFA00BF00BF46F612
:104D4000C5502880002085E710E0606C401C58B9F1
:104D500000BF00BF4846FBF79FFA00BF00BF46F602
:104D6000C5502880002075E700E000BF00BF606CE0
:104D7000401C6064666C00BF00BF4846FBF78CFABD
:104D800000BF00BF0BE000BF00BF4846FBF784FA3E
:104D900000BF00BF46F62D602880002600BF00BF80
:104DA000304657E7D000002070B504460D46002677
:104DB00000BF00BFFBF76CFA064600BF00BF0CB98E
:104DC0003D4804683C48006884420ED13B48007866
:104DD00000280ADD00BF00BF3046FBF75DFA00BFC8
:104DE00000BF46F66350288070BD0020288094F8EC
:104DF0003600082850D2DFE800F0041523313F4088
:104E00004142042084F83600012084F88A002046BC
:104E1000FFF72EFA00BF00BF3046FBF73DFA00BF98
:104E200000BF44E0052084F83600012084F88A00A1
:104E300000BF00BF3046FBF72FFA00BF00BF36E0CF
:104E4000062084F83600012084F88A0000BF00BFE5
:104E50003046FBF721FA00BF00BF28E0072084F8A6
:104E60003600012084F88A0000BF00BF3046FBF7FF
:104E700013FA00BF00BF1AE000BF00BF00BF94F8E4
:104E80008A00401C84F88A0000BF00BF3046FBF750
:104E900003FA00BF00BF0AE000BF00BF3046FBF7C7
:104EA000FBF900BF00BF46F62D6028809CE700BFDD
:104EB000FDF70CFC00BF97E7D00000207800002031
:104EC000002108E0064A02EBC10000220260828055
:104ED000C2804A1C91B2034A12889142F2DB7047A9
:104EE0007C0F0020C48E00082DE9F04F0C461646BA
:104EF0001D46042E1ED1DFF8A091D9F80090A4EB36
:104F00000909A9F1010313F5803F0DD94FF00009FC
:104F1000C0F84C90C0F85090C0F81C9047F27E2921
:104F2000A5F80090BDE8F08FC46403F10109C0F852
:104F300050903FE084B3082E25D1D0F8489009EB7B
:104F40000407DFF85491D9F80090A7EB0909A9F1FB
:104F50000103A34201D2C76406E0DFF83C91D9F80F
:104F60000090A144C0F84C90DFF82CA1D0F84C90F0
:104F7000DAF800A0A9EB0A09C0F85090D0F84C90DC
:104F8000C0F8489016E0DFF81091D9F80090A144DD
:104F9000C0F84C9004650DE0FFE74FF00009C0F841
:104FA0004C90C0F85090C0F81C9047F27E29A5F8AC
:104FB0000090B7E7DFF8E4A0BAF800A0D0F84C9072
:104FC000B9FBFAFB0AFB1B991FFA89F8DFF8D090AE
:104FD00009EBC802B2F80490B9F1000F0BD14FF001
:104FE0000009C0F81490C0F8189010604FF0010943
:104FF000A2F804903EE0116834E0DFF89CA0D1F8FC
:105000004C90DAF800A0A9EB0A09C1F85090D0F84A
:105010005090D1F850A0D1450ED9D1F81490B9F1E3
:10502000000F01D049691DE04FF00009C0F814904D
:1050300081614861002115E0D1F81890B9F1000FA5
:1050400007D14FF00009C0F81890416188611060E5
:1050500007E0D1F818C0C0F818C04161CCF81400BE
:10506000886100210029C8D1B2F8049009F1010932
:10507000A2F80490B2F80690B2F804A0D14503DA81
:10508000B2F80490A2F80690C2614FF00009A5F8AA
:10509000009000BF46E70000B0000020C48E00086A
:1050A0007C0F002010B5C269BAB1002404651468F1
:1050B000844205D14169116039B100248C6104E05A
:1050C000816943694B6103B1996100244461846142
:1050D000C461C4649488641E948010BD002006E0FE
:1050E000054A02EBC0010022CA80421C90B2034A6A
:1050F00012889042F4DB70477C0F0020C48E0008B9
:105100002DE9F05F4FF0000B00BF00BFFBF7C0F8C8
:10511000834600BF00BFFBF787FD05465648006881
:10512000401C554908600846006854490988B0FB8E
:10513000F1F201FB12001FFA80FA514800EBCA0895
:10514000D8F80040002782E0002C7FD0D4F81490DB
:1051500094F83600082875D2DFE800F00408051B33
:10516000063D075000BF00BF00BF6CE04249E06C45
:105170000968401A20654049E06C0968884206D1F8
:10518000002084F836002046FFF792FC00E001275B
:1051900059E03949E06C0968401A20653649E06CED
:1051A0000968884215D10020E065A4F86000FBF78B
:1051B0003BFD20642046FEF7D5FE2046FFF778FC35
:1051C00000203434A07003206070002004F83409FB
:1051D00000E0012737E02849E06C0968401A2065A3
:1051E0002549E06C0968884206D1042084F836001D
:1051F0002046FFF757FF00E0012724E01E49E06C3E
:105200000968401A20651C49E06C0968884217D17A
:105210000020E065A4F86000FBF706FD206420464E
:10522000FEF7A0FE2046FFF73DFF04203434A070B7
:1052300003206070002004F8340902E006E001E079
:10524000012700E000BF00BF4C4600E00127002F0F
:105250003FF47AAFFBF7E8FC461B0A480068B0420F
:1052600001D20848066000BF00BF5846FBF714F89B
:1052700000BF00BFBDE8F09FB0000020C48E000852
:105280007C0F0020B40000201CB500BF0EE001AB75
:105290006A4600210846FDF77BFFBDF8040028B9E7
:1052A00003480078012801D1FFF72AFFEFE700004B
:1052B0004500002010B58AB0044600201D49086052
:1052C0001D490860FFF7FCFD1C48006820B947F243
:1052D000122020800AB010BD1948006819490968D9
:1052E000884203D247F213202080F3E71648007863
:1052F0003F2803D347F211202080EBE70B20002149
:1053000005910A46CDE9070406910D4800680F494A
:1053100009680A4B1B68CDE90131CDE903020A484F
:10532000007800230A4A0BA100900F48FDF76AFDA0
:1053300000BFCFE7B0000020B4000020B48E00080A
:10534000BC8E0008A88E0008B08E0008B88E000839
:105350008952000875432F4F532D494949205469FC
:10536000636B205461736B002017002070B58AB006
:1053700004460020314908603148006840B1314896
:1053800000682F490968B0FBF1F02F49086006E07A
:105390002C4800680A21B0FBF1F02B4908602A482C
:1053A00000682A49086000202949086029490860E6
:1053B000002508E0284800EBC5060020B080F080FA
:1053C0003060681C85B2254800888542F2DB24489D
:1053D000006820B947F2473020800AB070BD2148EC
:1053E000006821490968884203D247F2483020808A
:1053F000F3E71E4800783F2803D347F24630208069
:10540000EBE70B2000210591CDE907040691084642
:1054100014490968164A1268114B1B68CDE901321C
:10542000CDE90310114800780023124A12A1009020
:105430001748FDF7E7FC00BFCFE70000B8000020E9
:10544000D08E0008AC8E0008C8000020CC000020E0
:10545000C4000020C000002004120020E48E0008D8
:10546000D48E0008DC8E0008A88E0008CC8E0008C0
:10547000D88E00088955000875432F4F532D494990
:10548000492054696D6572205461736B00000000FF
:10549000E4170020F0B50C46022680F82A60012CA3
:1054A00005D12D4F466A3F683E4486610CE0066A8E
:1054B0002EB9294F466A3F683E44866104E0264F74
:1054C000066A3F683E448661244F3F888669B6FB82
:1054D000F7FC07FB1C66B5B2214E06EBC502166849
:1054E00036B90026066146611060012696802CE0E0
:1054F000194F86693F68F61BC661116820E0164F98
:105500008E693F68F61BCE61C669CF69BE4209D974
:105510000E690EB1096913E0002606614161086158
:1055200000210DE04E692EB90026466101614861F7
:10553000106004E04B69436101611861486100211A
:105540000029DCD19688761C9680D6889788BE4242
:1055500001DA9688D680F0BDC4000020E48E0008F1
:1055600004120020002006E0054A02EBC0010022E0
:10557000CA80421C90B2034A12889042F4DB704702
:1055800004120020E48E00081CB500BF53E001ABFC
:105590006A4600210846FDF7FBFD01A8FDF7E6F885
:1055A000FBF742FB064624480068401C224908607D
:1055B0000846006821490988B0FBF1F201FB12009E
:1055C0001FFA80FA1E4800EBCA08D8F800404FF0D6
:1055D000000B21E0F4B1D4F810901749A0690968D4
:1055E000884214D1204600F02FF8208D022804D1E3
:1055F00001212046FFF74EFF02E0032084F82A0035
:10560000A56815B12046E168A8474C4604E04FF074
:10561000010B01E04FF0010BBBF1000FDAD0FBF7FB
:1056200003FB871B01A8FDF70DF906480068B84287
:1056300001D204480760AAE7C4000020E48E0008F5
:1056400004120020C0000020F0B5114E3688856994
:10565000B5FBF6F706FB1755ACB20E4D05EBC402D1
:105660001568854205D10169116039B100254D6188
:1056700004E0416903690B6103B15961012580F8B8
:105680002A5000250561456195886D1E9580F0BD05
:10569000E48E00080412002070B52DED068B05463F
:1056A0000C46F0EE409AB0EE60AAB0EE418AF0EE01
:1056B000618AB0EE429A39EECA0A84ED000A94ED8E
:1056C000000AD4ED010A30EE600AC0EE080AC4ED0B
:1056D000020A39EE080AC8EE000A94ED020A94EDB7
:1056E000031A30EE411A94ED030A00EE810A84EDAC
:1056F000020A94ED020A84ED030A94ED000A84ED97
:10570000010A95ED000AD4ED000A20EE200A84ED8E
:10571000040A95ED010AD4ED000A60EE200A94ED2A
:10572000050A00EE880A84ED050A95ED020AD4ED1B
:10573000020A20EE200A84ED060AD4ED050AB0EE36
:10574000600AB1EE681AF0EE680AFCF71EFA84ED02
:10575000050A94ED040AD4ED050A30EE200AD4EDD2
:10576000060A30EE200A84ED070A94ED070ABDEC24
:10577000068B70BD00B58BB00121022000F092FABB
:105780000121042000F06EFA4FF4707001900220A5
:105790008DF809008DF8080000208DF80A008DF8BA
:1057A0000B0001A93848FCF74AF9032206213648C4
:1057B000FCF78DF9032207213348FCF788F903220F
:1057C00008213148FCF783F9032209212E48FCF710
:1057D0007EF94FF4FA600990A720ADF82000002070
:1057E000ADF82800ADF8220008A9284800F02AFFEB
:1057F0006020ADF80C000020ADF818004FF47A706E
:1058000005900120ADF80E0003A9204800F0CEFD60
:1058100008211E4800F008FE4FF47A700590012020
:10582000ADF80E0003A9194800F008FE082117483A
:1058300000F056FE4FF47A7005900120ADF80E008E
:1058400003A9124800F05AFE0821104800F0A6FEF5
:105850004FF47A7005900120ADF80E0003A90B48B3
:1058600000F0A6FE0821094800F0DEFE01210748ED
:1058700000F074FD0121054800F088FD0121034876
:1058800000F078FD0BB000BD0008024000040140AC
:1058900030B500F57A7001F57A7102F57A7203F588
:1058A0007A730C4C646C012C0AD14FF47A740A4D53
:1058B0002C602D1D2C602D1D2C602D1D2C6007E0F3
:1058C000054C2060241D2160241D2260241D2360BE
:1058D00030BD0000C85E0020340401409FED410A45
:1058E000414880ED070A9FED3F0A404880ED070AD6
:1058F0009FED3C0A3E4880ED070A9FED3A0A3D487D
:1059000080ED040A9FED370A3B4880ED040A9FEDC5
:10591000350A3A4880ED040A9FED320A354880ED99
:10592000050A9FED300A344880ED050A9FED2D0AE7
:10593000324880ED050A9FED2B0A2E4880ED060ABD
:105940009FED280A2C4880ED060A9FED260A2B4879
:1059500080ED060A9FED230A264880ED020A9FED9E
:10596000210A254880ED020A9FED1E0A234880ED9A
:10597000020A9FED1C0A1F4880ED030A9FED190AD9
:105980001D4880ED030A9FED170A1C4880ED030AAD
:105990009FED140A174880ED010A9FED120A164880
:1059A00080ED010A9FED0F0A144880ED010A9FED7A
:1059B0000D0A104880ED070A9FED0A0A0E4880ED97
:1059C000070A9FED080A0D4880ED070AB6EE080A9F
:1059D0000B4880ED050A9FED030A0A4880ED080A8E
:1059E00070470000000000000860002028600020D0
:1059F00048600020C8600020E860002008610020A6
:105A0000DC610020645F002010B56C48406801280C
:105A100016D16B4890ED050ADFED6A0A30EE600A98
:105A200080ED050A684890ED050ADFED680AB4EEDE
:105A3000E00AF1EE10FA03D20020604908704860D5
:105A400063480078F0B35E4890ED030A5E48D0EDFD
:105A5000030A30EE600A5F48D0ED120A20EE200AF9
:105A60005D4880ED070AD0ED070AB0EE600ABEEE91
:105A7000081AF6EE080AFCF788F8574880ED070A7E
:105A80004F4890ED040A5048D0ED040A30EE600A09
:105A90005048D0ED150A20EE200A504880ED070A44
:105AA000D0ED070AB0EE600ABEEE081AF6EE080A5C
:105AB000FCF76BF8494880ED070A414890ED050A6C
:105AC000414800E018E0D0ED050A30EE600A414898
:105AD000D0ED180A20EE200A414880ED070AD0EDEB
