:020000040800F2
:10000000F06E002069020008113A00086D23000814
:10001000E9370008410C00082385000800000000B3
:10002000000000000000000000000000A9780008A7
:100030007D1E0008000000009B040008717A000883
:10004000830200088302000883020008830200087C
:10005000830200088302000883020008830200086C
:10006000830200088302000883020008830200085C
:1000700083020008830200083D1200088302000882
:10008000830200088302000883020008830200083C
:10009000830200088302000883020008830200082C
:1000A000830200088302000883020008830200081C
:1000B000830200088302000883020008830200080C
:1000C00083020008830200088302000883020008FC
:1000D00083020008C981000883020008D981000852
:1000E00083020008830200088302000883020008DC
:1000F00083020008830200088302000883020008CC
:1001000083020008830200088302000883020008BB
:1001100083020008830200088302000883020008AB
:10012000830200088302000883020008830200089B
:10013000830200088302000883020008830200088B
:10014000830200088302000883020008830200087B
:1001500083020008830200084D1200088302000891
:10016000830200088302000883020008830200085B
:10017000830200088302000883020008830200084B
:10018000830200088302000800F002F800F05CF827
:100190000AA090E8000C82448344AAF10107DA45E2
:1001A00001D100F051F8AFF2090EBAE80F0013F0D8
:1001B000010F18BFFB1A43F001031847B4B0000049
:1001C000D4B000000A444FF0000C10F8013B13F0CB
:1001D000070408BF10F8014B1D1108BF10F8015BA0
:1001E000641E05D010F8016B641E01F8016BF9D193
:1001F00013F0080F1EBF10F8014BAD1C0C1B09D1EA
:100200006D1E58BF01F801CBFAD505E014F8016B5B
:1002100001F8016B6D1EF9D59142D6D370470000ED
:100220000023002400250026103A28BF78C1FBD8FF
:10023000520728BF30C148BF0B6070471FB50AF096
:100240008AFE1FBD10B510BD00F0D7F81146FFF7AC
:10025000F5FF09F0ABFB00F0F5F803B4FFF7F2FF90
:1002600003BC00F0F9F8000009488047094800473E
:10027000FEE7FEE7FEE7FEE7FEE7FEE7FEE7FEE756
:10028000FEE7FEE704480549054A064B70470000B3
:100290009D7A000889010008F0680020F06E0020B7
:1002A000F06A0020F06A002072B6704762B67047AC
:1002B000EFF3108072B6704780F31088704730BF3C
:1002C000704720BF7047B0FA80F0704790FAA0F0F6
:1002D000B0FA80F0704790FAA0F07047032A40F21D
:1002E000308010F0030C00F0158011F8013BBCF1D8
:1002F000020F624498BF11F801CB00F8013B38BFF0
:1003000011F8013BA2F1040298BF00F801CB38BFFD
:1003100000F8013B11F0030300F02580083AC0F01B
:10032000088051F8043B083A51F804CBA0E80810C3
:10033000F5E7121D5CBF51F8043B40F8043BAFF3F6
:100340000080D20724BF11F8013B11F801CB48BF50
:1003500011F8012B24BF00F8013B00F801CB48BF86
:1003600000F8012B704710B5203AC0F00B80B1E8BF
:100370001850203AA0E81850B1E81850A0E81850DA
:10038000BFF4F5AF5FEA027C24BFB1E81850A0E8E3
:10039000185044BF18C918C0BDE810405FEA827CFD
:1003A00024BF51F8043B40F8043B08BF7047D20714
:1003B00028BF31F8023B48BF11F8012B28BF20F8B5
:1003C000023B48BF00F8012B7047704770477047E9
:1003D00010B500F00DF8006810BD10B5044600F02F
:1003E00007F8046010BD0000004870478C680020CA
:1003F000004870478C68002070477546FFF7F4FF8F
:10040000AE4605006946534620F00700854618B001
:1004100020B5FFF737FFBDE820404FF000064FF052
:1004200000074FF000084FF0000B21F00701AC4629
:10043000ACE8C009ACE8C009ACE8C009ACE8C00948
:100440008D46704710B50446AFF300802046BDE8E6
:100450001040FFF702BF000001491820ABBEFEE7C5
:100460002600020022484FF6FF710170002080F341
:1004700009882048016881F308881F484FF080519F
:10048000016062B6FEE71C484FF080510160704782
:1004900019484FF080510160704772B6EFF3098040
:1004A00050B11EF0100F08BF20ED108A203880E8F0
:1004B000F00F12490968086000B5114880475DF8DF
:1004C00004EB104810490A7802700C480F490A687A
:1004D0000260106890E8F00F20301EF0100F08BF87
:1004E000B0EC108A80F309884EF0040E62B67047B3
:1004F00022ED00E0D800002004ED00E0D000002054
:10050000B14D00085E0000205F000020D4000020F4
:1005100021B1826842F00102826003E0826822F029
:1005200001028260704700000021084A1168084AF1
:100530001140D0E900231A4383681A43C3681A4361
:100540001143044AC2F80413704700000423014019
:10055000E030FCFF0020014021B1826842F480724B
:10056000826003E0826822F480728260704721B169
:10057000826842F40072826003E0826822F40072B2
:100580008260704730B50246002000235068104C4E
:1005900020400D790C6844EA05242043506090689F
:1005A0000C4C2040D1E903542C438D682C434D79E9
:1005B00044EA450420439060D06A20F470000C7D2A
:1005C000641EE4B2234340EA0350D06230BD000011
:1005D000FFFEFFFCFDF7FFC0F0B504460D4600200E
:1005E0000021092D11DDE068A5F10A0606EB46079A
:1005F000072606FA07F18843A5F10A0606EB460628
:1006000003FA06F10843E0600CE0206905EB4507BA
:10061000072606FA07F1884305EB450603FA06F1BB
:1006200008432061072A0FDA606B561E06EB860727
:100630001F2606FA07F18843561E06EB860605FAC2
:1006400006F10843606322E00D2A0FDA206BD61F03
:1006500006EB86071F2606FA07F18843D61F06EB2E
:10066000860605FA06F10843206310E0E06AA2F16D
:100670000D0606EB86071F2606FA07F18843A2F14E
:100680000D0606EB860605FA06F10843E062F0BDAA
:10069000816841F0804181607047000000B59BB0E7
:1006A00001213D4806F0B8FE0121080206F0D4FE03
:1006B00004200A9003208DF82C0000208DF82F00D4
:1006C0000AA9364801F0BFFC0121080206F0D4FE59
:1006D00000214FF4807006F0CFFE002006904FF40A
:1006E00070600990002008904FF48030079006A8B1
:1006F000FFF71AFF002000908DF8040001208DF80C
:10070000050000200290049001208DF81400694635
:100710002348FFF737FF072301220C212048FFF76A
:100720005BFF01211E48FFF722FF01211C48FFF754
:1007300013FF01211A48FFF7EBFE1A4800F0B4FD41
:100740000520109000200C900F90179016480E90E6
:10075000002019904FF400501490C0101290801097
:1007600015900F484C300D9000201A904FF4006007
:100770001390002011904FF4003016900CA90948F6
:1007800000F092FE0121074800F082FD0448FFF7C7
:100790007FFF1BB000BD00000400400000080240C5
:1007A00000200140106402404864002010B52DED87
:1007B000028BA2480078B0B3A148D0ED011AA1483D
:1007C00090ED012A71EEC21AB0EE610A9E48D0ED9A
:1007D000031A61EE801A9D48C0ED071A9848D0EDC3
:1007E000001A984890ED002A71EEC21AF0EE610AE4
:1007F0009548D0ED001A61EEA01A9548C0ED071A91
:100800008F48D0ED021A934890ED022A71EEC21A79
:10081000B0EE611A8C48D0ED061A61EE811A8E484E
:10082000C0ED071A00BF85480078C04308B1012019
:1008300000E00020814908708848407805282DD0C4
:10084000804890ED031AF0EE410A804890ED071AB7
:10085000B0EE410A9FED822AF5EE001A9FED811A53
:1008600081497948243006F065FA7648D0ED040ACB
:1008700090ED051ADFED7D1A21EE211A00EE810AB6
:10088000D0ED040A9FED7A1A60EE810A90ED051A08
:1008900000EEC10A774880ED000A32E0684890ED2A
:1008A000030ADFED750A80EE201AB0EE418A654832
:1008B00090ED030AF0EE400A9FED692AF5EE001A6A
:1008C0009FED681AB0EE480A67495F48243006F089
:1008D00031FA5C48D0ED040A90ED051ADFED631A99
:1008E00021EE211A00EE810AD0ED040A9FED601A74
:1008F00060EE810A90ED051A00EEC10A5D4880EDB8
:10090000000A5648407804282FD04E4890ED041A2B
:10091000F0EE410A4E4890ED071AB0EE410A9FED05
:10092000502AF5EE001A9FED4F1A544946483030D0
:1009300006F000FA4348D0ED030A90ED051ADFED0A
:100940004B1A21EE211A60EE810A90ED031ADFEDB9
:10095000481A21EE211AD0ED051A51EE210A30EE87
:10096000200A444880ED010A34E0354890ED040A3D
:10097000DFED410A80EE201AB0EE418A314890ED59
:10098000040AF0EE400A9FED362AF5EE001A9FEDBC
:10099000351AB0EE480A39492B48303006F0CAF90A
:1009A0002848D0ED030A90ED051ADFED301A21EE4C
:1009B000211A60EE810A90ED031ADFED2D1A21EE67
:1009C000211AD0ED051A51EE210A30EE200A2948ED
:1009D00080ED010A1B4890ED051AF0EE410A1E4811
:1009E00090ED071AB0EE410A9FED1D2AF5EE001AB0
:1009F0009FED1C1A224914483C3006F09BF911481F
:100A0000D0ED030A90ED041ADFED191A21EE211A38
:100A100000EE810AD0ED030A9FED151A60EE810AFF
:100A200090ED041A00EEC10A124880ED020A9FED13
:100A3000150A07F055FABDEC028B10BD4C010020E1
:100A40009C5F0020545F0020B461002054600020AF
:100A5000346000204462002074600020DC0000202C
:100A60000361023C0AD7A33BF46000206F12033BF2
:100A70006F12833AF05F002000409C451461002013
:100A8000346100205C8F423E0EB500BF002401257A
:100A900035E01B48007801281DD11948407803280B
:100AA00016D1B4F5FA7F07D2641CC8231A4619463A
:100AB000184606F03BFA19E02DB100250120114936
:100AC000087006F0E5FAFFF771FE06F0EFFE0DE0A4
:100AD000FFF76CFE0AE00024012500200949087098
:100AE00000231A461946184606F020FA02A80021EB
:100AF00005230A46CDE90010084604F0FFF9C8E7CF
:100B0000DC000020E5000020F0EE400A02469FEDE8
:100B1000161AB0EE410A002009E0431C01EB8303E2
:100B200093ED001A01EB800383ED001A401C531E65
:100B30008342F2DC01EB8303C3ED000A002008E0EE
:100B400001EB800393ED001A31EE001AB0EE410A7A
:100B5000401C9042F4DB01EE102AB8EE411AC0EEC0
:100B6000011AB0EE610A7047000000001FB5684628
:100B700006F092FC019804B010BD00002DED028B30
:100B80008EB000BF34E001F0D9FBB0EE408A03A97B
:100B90000A20FFF7B9FF174880ED0F0A90ED0F0A02
:100BA000DFED150AB4EEE00AF1EE10FA07D21348B1
:100BB0000078012803D001200E4948640FE00D4859
:100BC00090ED0F0AF2EE0C0AB4EEE00AF1EE10FA24
:100BD00002D20120094948600020064948640DA856
:100BE000002164230A46CDE90010084604F086F986
:100BF000C9E70000545F0020CDCC6C41DC00002030
:100C000010B54FF4E13007F093FD10BD0EB500BFF5
:100C100013E00A488078012804D108F06DFF002015
:100C20000649887009F094F902A8002132230A4687
:100C3000CDE90010084604F061F9EAE7DC00002085
:100C400000BFFEE710B500F01FF800F019F810BD66
:100C500010B5002400BF00BFFFF72AFB044600BF09
:100C600000BF1021054802F0C1FD00BF00BF2046B3
:100C7000FFF722FB00BF00BF10BD0000B80100203D
:100C800010B5FFF7E5FF10BD10B500200249086060
:100C900000F00AF810BD00001800002001490860AB
:100CA000704700001800002010B5FFF75FFF0446F2
:100CB0000848006840F08070064908600020064936
:100CC00048600846006840F0010008602046FFF7D1
:100CD000E5FF10BDFCED00E0001000E001494868B0
:100CE00070470000001000E000B52DED048B87B0C8
:100CF000B0EE408AF0EE608AB0EE419A01F012FB4D
:100D000000BBFD480078E8B901F012FB28B9FB48A8
:100D10000068401CF949086002E00020F7490860BB
:100D2000F6480068B0F57A7F0CD90120F4490870C4
:100D3000F14908700020F3490880F3488069401C9D
:100D4000F149886101F0EEFA012820D1EA484078A3
:100D5000E8B901F0EDFA28B9E8480068401CE74915
:100D6000086002E00020E5490860E4480068B0F54A
:100D70007A7F0CD90120E2490870DF4948700020D1
:100D8000E0490880E0488069401CDF49886101F043
:100D9000C9FA042820D1D8480079E8B901F0C8FA86
:100DA00028B9D6480068401CD449086002E00020F9
:100DB000D2490860D1480068B0F57A7F0CD901208B
:100DC000CF490870CC4908710020CE490880CE4830
:100DD0008069401CCC49886101F0A4FA052820D123
:100DE000C5484079E8B901F0A3FA28B9C3480068BA
:100DF000401CC249086002E00020C0490860BF48AA
:100E00000068B0F57A7F0CD90120BD490870BA4955
:100E100048710020BB490880BB488069401CBA4922
:100E2000886101F07FFA022820D1B3488078E8B9C0
:100E300001F07EFA28B9B1480068401CAF4908604B
:100E400002E00020AD490860AC480068B0F57A7F48
:100E50000CD90120AA490870A74988700020A94927
:100E60000880A9488069401CA749886101F05AFAA6
:100E7000032820D1A048C078E8B901F059FA28B970
:100E80009E480068401C9D49086002E000209B4984
:100E900008609A480068B0F57A7F0CD9012098491B
:100EA00008709549C8700020964908809648806966
:100EB000401C9549886192480078002846D09148A6
:100EC0000088B0F5FA7F42DA8F488069401E00EB57
:100ED00040008E4901EB800090ED000A30EE080AD8
:100EE00089488069401E00EB400001EB800080EDE6
:100EF000000A85488069401E00EB400001EB80003D
:100F000090ED010A30EE280A7F488069401E00EB10
:100F1000400001EB800080ED010A7B488069401EA3
:100F200000EB400001EB800090ED020A30EE090A70
:100F300075488069401E00EB400001EB800080EDA9
:100F4000020A70480088401C6E49088051E06D48D4
:100F50000088B0F5FA7F4CD16B488069401E00EBE9
:100F600040006A4901EB800090ED000ADFED680A5D
:100F700080EE201A64488069401E00EB400001EBBF
:100F8000800080ED001A60488069401E00EB400040
:100F900001EB800090ED010ADFED5D0A80EE201A82
:100FA00059488069401E00EB400001EB800080ED55
:100FB000011A55488069401E00EB400001EB80009B
:100FC00090ED020ADFED520A80EE201A4E48806949
:100FD000401E00EB400001EB800080ED021A494802
:100FE0000088401C47490880002045490870434953
:100FF00008604548806906287DD14248008840F253
:10100000F5118842F8D19FED430A8DED010A9FED5D
:10101000410A8DED020A9FED3F0A8DED030AB7EEFE
:10102000000A8DED040AB7EE000A8DED050AB7EE51
:10103000000A8DED060AB7EE000A01AB364A3749C1
:10104000324801F0CBFC344890ED000AF7EE000A7C
:1010500030EE600AB0EEC00ADFED310AB4EEE00A0D
:10106000F1EE10FA1DDC90ED010AF7EE000A30EE09
:10107000600AB0EEC00ADFED2A0AB4EEE00AF1EE33
:1010800010FA0EDC90ED020AF7EE000A30EE600A6C
:10109000B0EEC00ADFED220AB4EEE00AF1EE10FA7B
:1010A00003DD01201849087794E01C4890ED000A00
:1010B000B0EEC00ADFED1B0AB4EEE00AF1EE10FA62
:1010C00015DC90ED010AB0EEC00ADFED160AB4EEB1
:1010D000E00AF1EE10FA0ADC90ED020AB0EEC00A66
:1010E000DFED110AB4EEE00AF1EE10FA1EDD012088
:1010F000054908776EE06EE03A01002044010020C7
:101100004001002038010020D05F0020A0660020B0
:101110000000FA430000000094660020886600206A
:10112000CDCCCC3D3333B33E9A99193F00201AE021
:101130001FED080A00EB4001294A02EB810181ED15
:10114000000A1FED0C0A00EB400102EB810181ED6A
:10115000010A1FED100A00EB400102EB810181ED55
:10116000020A411CC8B20628E2DB1E4890ED000AC4
:101170001D4880ED000A1B4890ED010A1A4880EDD9
:10118000010A184890ED020A174880ED020A174834
:1011900090ED000A144880ED030A144890ED010A0E
:1011A000114880ED040A114890ED020A0E4880EDC6
:1011B000050A07F06DFD00200B49886100BF04E0BF
:1011C00000210B4A1154411CC8B20628F8DB01204B
:1011D0000549087700BF07B0BDEC048B00BD0000D7
:1011E000A066002088660020D05F00209466002062
:1011F0003A010020F0EE401A11EE900A20F0004172
:10120000C1F1FF41C90F31B130EE810AB6EE002ABB
:1012100020EE020A7047F4EEE01AF1EE10FA02D264
:10122000B0EE600AF6E7F4EEC11AF1EE10FA02DD54
:10123000B0EE410AEEE7B0EE610AEBE710B502F05E
:101240000FFD07F0B9F802F021FD10BD10B502F056
:1012500007FD07F097F802F019FD10BD0246094B93
:101260009A4201D2084801E00648103801F00053C4
:101270001BB1064B0B40C36002E0044B0B40836084
:101280007047000010640240006002407D0F7D0F37
:1012900021B1026842F00102026003E0026822F01C
:1012A0000102026070470000016821F00101016045
:1012B0000021016041608160C160016121214161C3
:1012C0004A49884204D13D21484A103A91608CE055
:1012D00046491831884205D14FF47461434A103AA7
:1012E000916082E041493031884205D14FF4741158
:1012F0003E4A103A916078E03C494831884205D135
:101300004FF07461394A103A91606EE037496031AC
:10131000884204D13649354A103AD16065E03349F4
:101320007831884204D13349304A103AD1605CE0C8
:101330002E499031884204D12F492C4A103AD1606D
:1013400053E02A49A831884205D14FF03D51274A40
:10135000103AD16049E02949884204D13D21274A09
:10136000083A116041E025491831884205D14FF40F
:101370007461224A083A116037E0204930318842CE
:1013800005D14FF474111D4A083A11602DE01B4934
:101390004831884205D14FF07461184A083A11600B
:1013A00023E016496031884204D11149134A121FC3
:1013B00011601AE011497831884204D10D490F4A71
:1013C000121F116011E00D499031884204D10A4981
:1013D0000A4A121F116008E00849A831884204D166
:1013E0004FF03D51054A121F1160704710600240D6
:1013F0003D000020400F002000003D20106402400E
:101400000146486880B2704770B50246002000244B
:101410000025124EB24201D2114B01E00F4B103B9E
:10142000104E0E4036B11E2606EAD124166806EA92
:10143000040502E0566906F0800501F000560EB181
:101440005C6800E01C68084E344004EA010616B1EE
:101450000DB1012000E0002070BD000010640240CA
:10146000006002403C0F3C0F7D0F7D0F10B501F076
:1014700080034BB122B1436943F08003436103E031
:10148000436923F08003436180290BD02AB10368AC
:1014900001F01E042343036004E0036801F01E040E
:1014A000A343036010BD000010B500220268134B77
:1014B0001A40CC680B6823434C6923438C6923434F
:1014C000CC6923430C6A23434C6A23438C6A23432D
:1014D0004C6B23438C6B23431A430260426922F016
:1014E0000702D1E90B3423431A4342610B6943607D
:1014F0004B6883608B68C36010BD00003F801CF0A8
:10150000416070470FB47FB50898142814D19DF836
:1015100024005528FAD108A84079AA28F6D108A8AD
:101520008079FF2818D1FE48406CA8B908A8C07976
:1015300018B90020FB490870C3E308A8C079012846
:1015400002D1F8490870BCE308A8C0790228F3D199
:101550000120F4494860B4E308A88079012853D1F8
:10156000F048407803284FD0002406E0E01C09A989
:10157000085C03A90855601CC4B2042CF6DB0421E6
:1015800003A800F0F5FEDFEDE80A20EE200ADFED0B
:10159000E70A80EE201AE64880ED001A002406E0F3
:1015A000E01D09A9085C03A90855601CC4B2042CFD
:1015B000F6DB042103A800F0DBFEDFEDDB0A20EE02
:1015C000200ADFEDDA0A80EE201AD94880ED011AF0
:1015D000002407E004F10B0009A9085C03A90855E1
:1015E000601CC4B2042CF5DB042103A800F0C0FE8B
:1015F000DFEDCD0A20EE200ADFEDCC0A80EE201AC6
:10160000CB4880ED021A5CE308A88079022822D139
:1016100008A8C07906281CD2DFE800F003070B0FEA
:1016200013170020BF49487014E00120BD494870DD
:1016300010E00220BB4948700CE00320B949487013
:1016400008E00420B749487004E00520B549487017
:1016500000BF00BF35E308A88079032803D101202B
:10166000B04988702DE308A88079042803D10020B0
:10167000B049087725E308A8807905282ED10024F1
:1016800017E0002508E0E81C00EB840109A8405C95
:1016900003A94855681CC5B2042DF4DB042103A836
:1016A00000F066FE684600EB840080ED000A601CD6
:1016B000C4B2032CE5DB9DED000A9F4880ED000AD3
:1016C0009DED010A80ED010A9DED020A80ED020AFE
:1016D00007F0DEFA012093498870F2E208A88079C9
:1016E00006282ED1002417E0002508E0E81C00EBB6
:1016F000840109A8405C03A94855681CC5B2042DA3
:10170000F4DB042103A800F033FE684600EB8400FC
:1017100080ED000A601CC4B2032CE5DB9DED000ADD
:10172000854880ED030A9DED010A80ED040A9DEDD8
:10173000020A80ED050A07F0ABFA012079498870AA
:10174000BFE208A8807907282ED1002417E00025E1
:1017500008E0E81C00EB840109A8405C03A9485597
:10176000681CC5B2042DF4DB042103A800F000FEC0
:10177000684600EB840080ED000A601CC4B2032CB4
:10178000E5DB9DED000A6C4880ED060A9DED010A3F
:1017900080ED070A9DED020A80ED080A07F078FA4D
:1017A0000120604988708CE208A8807908282ED131
:1017B000002417E0002508E0E81C00EB840109A8DC
:1017C000405C03A94855681CC5B2042DF4DB042114
:1017D00003A800F0CDFD684600EB840080ED000A10
:1017E000601CC4B2032CE5DB9DED000A524880ED7D
:1017F000180A9DED010A80ED190A9DED020A80ED9F
:101800001A0A07F045FA01204649887059E208A8EB
:1018100080790B282ED1002417E0002508E0E81C71
:1018200000EB840109A8405C03A94855681CC5B2B7
:10183000042DF4DB042103A800F09AFD684600EBB8
:10184000840080ED000A601CC4B2032CE5DB9DED32
:10185000000A394880ED0C0A9DED010A80ED0D0A61
:101860009DED020A80ED0E0A07F012FA01202D49C3
:10187000887026E208A880790C282ED1002417E071
:10188000002508E0E81C00EB840109A8405C03A9DE
:101890004855681CC5B2042DF4DB042103A800F0F0
:1018A00067FD684600EB840080ED000A601CC4B24E
:1018B000032CE5DB9DED000A1F4880ED090A9DED34
:1018C000010A80ED0A0A9DED020A80ED0B0A07F07D
:1018D000DFF9012013498870F3E108A880790D2809
:1018E0003DD1002417E0002508E0E81C00EB84014E
:1018F00009A8405C03A94855681CC5B2042DF4DB57
:10190000042103A800F034FD684600EB840080ED5C
:10191000000A601CC4B2032CE5DB9DED000A0DE05B
:10192000545F0020DC000020DB0F494000003443FE
:101930009C5F0020D05F0020B4610020E24880ED71
:101940000F0A9DED010A80ED100A9DED020A80ED5F
:10195000110A07F09DF90120DC498870B1E108A85F
:1019600080790E282ED1002417E0002508E0E81C1D
:1019700000EB840109A8405C03A94855681CC5B266
:10198000042DF4DB042103A800F0F2FC684600EB10
:10199000840080ED000A601CC4B2032CE5DB9DEDE1
:1019A000000AC94880ED210A9DED010A80ED220A56
:1019B0009DED020A80ED230A07F06AF90120C34970
:1019C00088707EE108A880790F2824D1002406E0E1
:1019D000E01C09A9085C03A90855601CC4B2042CCA
:1019E000F6DB042103A800F0C3FCB94880ED040A2B
:1019F000002406E0E01D09A9085C03A90855601C45
:101A0000C4B2042CF6DB042103A800F0B1FCB048FA
:101A100080ED030A55E108A88079102837D1002409
:101A200006E0E01C09A9085C03A90855601CC4B2C3
:101A3000042CF6DB042103A800F09AFCA54880EDF5
:101A4000030A002406E0E01D09A9085C03A9085563
:101A5000601CC4B2042CF6DB042103A800F088FC4F
:101A60009C4880ED040A002407E004F10B0009A95A
:101A7000085C03A90855601CC4B2042CF5DB0421E2
:101A800003A800F075FC934880ED050A19E108A849
:101A9000807911284AD1002406E0E01C09A9085CDD
:101AA00003A90855601CC4B2042CF6DB042103A86A
:101AB00000F05EFC884880ED000A002406E0E01D8E
:101AC00009A9085C03A90855601CC4B2042CF6DB04
:101AD000042103A800F04CFC7F4880ED010A00249B
:101AE00007E004F10B0009A9085C03A90855601C74
:101AF000C4B2042CF5DB042103A800F039FC7648BD
:101B000080ED030A002407E004F10F0009A9085C36
:101B100003A90855601CC4B2042CF5DB042103A8FA
:101B200000F026FC6C4880ED020ACAE008A8807923
:101B300012282ED1002417E0002508E0E81C00EB55
:101B4000840109A8405C03A94855681CC5B2042D4E
:101B5000F4DB042103A800F00BFC684600EB8400D2
:101B600080ED000A601CC4B2032CE5DB9DED000A89
:101B7000554880ED120A9DED010A80ED130A9DED96
:101B8000020A80ED140A07F083F801204F4988709B
:101B900097E008A8807913282ED1002417E00025AB
:101BA00008E0E81C00EB840109A8405C03A9485543
:101BB000681CC5B2042DF4DB042103A800F0D8FB97
:101BC000684600EB840080ED000A601CC4B2032C60
:101BD000E5DB9DED000A3C4880ED150A9DED010A0C
:101BE00080ED160A9DED020A80ED170A07F050F805
:101BF00001203649887064E008A8807914282ED125
:101C0000002417E0002508E0E81C00EB840109A887
:101C1000405C03A94855681CC5B2042DF4DB0421BF
:101C200003A800F0A5FB684600EB840080ED000AE5
:101C3000601CC4B2032CE5DB9DED000A224880ED58
:101C40001B0A9DED010A80ED1C0A9DED020A80ED44
:101C50001D0A07F01DF801201C49887031E008A812
:101C6000807915282DD1002417E0002508E0E81C14
:101C700000EB840109A8405C03A94855681CC5B263
:101C8000042DF4DB042103A800F072FB684600EB8E
:101C9000840080ED000A601CC4B2032CE5DB9DEDDE
:101CA000000A094880ED1E0A9DED010A80ED1F0A19
:101CB0009DED020A80ED200A06F0EAFF01200349AB
:101CC00088707FBC5DF814FBB4610020DC0000204C
:101CD0009C5F002068620020C05F00208EB000BFC3
:101CE0000DAB012211A1154802F044F91CE00DA82A
:101CF00000231A4619460090104802F07BF9402252
:101D00000F491048FEF72FFB0D48001F00680D49D2
:101D1000091F0860342210316846FEF724FB094889
:101D2000001F0FC800F010F8E1E700004461746183
:101D30004465616C5F70726F63000000D4620020C4
:101D4000A0650020446300200FB400B58DB00E984C
:101D5000142844D042480078012840D19DF83C0026
:101D600055283CD00EA84079AA2838D040220FA987
:101D70003C48FEF7F8FA3C4800783C4908700FE010
:101D80003A48007838490978401A3649085C384999
:101D9000364A1278885435480078401C3349087018
:101DA000314909780E980844304909788842E7D8C3
:101DB00014203049086000202949087014222C4959
:101DC0002C48001DFEF7CFFA34222A49103168460C
:101DD000FEF7C9FA27480FC8FFF794FB3CE00E98BE
:101DE000142825D89DF83C00552821D140220FA960
:101DF0002148FEF7B8FA00201C4908700CE01E4884
:101E00001A490978405C1A49184A127888541748C8
:101E10000078401C15490870144909780E988842CA
:101E2000EDD811490E98087001200D49087013E093
:101E30000E98142810D19DF83C0055280CD10EA8FE
:101E40004079AA2808D1342212A96846FEF78BFAF5
:101E50000EA80FC8FFF756FB0DB05DF814FB00008D
:101E600050010020206800204F0100204E0100207A
:101E700078680020346800200C680020704700005B
:101E800030B10749096841F48061054A116005E0F5
:101E90000349096821F48061014A1160704700001C
:101EA000003C024070B504460A460026092502B9E6
:101EB00009E0012A01D1160205E0022A01D1160229
:101EC00001E04FF4407600F09FF80546092D28D137
:101ED0001548006820F440701349086008460068FF
:101EE000304308600846006820F0F80008600846A3
:101EF000006844F0020108430B4908600846006886
:101F000040F48030086000F07FF80546064800681D
:101F100020F00200044908600846006820F0F8003C
:101F20000860284670BD0000103C0240092013499B
:101F3000096801F48031B1F5803F01D101201CE036
:101F40000E49096801F0100109B1062015E00B499E
:101F5000096801F4807109B102200EE0074909689F
:101F600001F0EF0109B1072007E00449096801F019
:101F7000020109B1082000E0092070470C3C024032
:101F80000348006840F000400149086070470000C5
:101F9000103C024030B502460C46092500F034F8EA
:101FA0000546092D19D10E48006820F440700C49EF
:101FB00008600846006840F4007008600846006841
:101FC00040F001000860146000F01EF80546044867
:101FD000006820F0010002490860284630BD00007A
:101FE000103C02400548006800F0004028B1044859
:101FF00002490C390860034808607047103C0240F1
:1020000023016745AB89EFCD08B509200090FFF7A4
:102010008DFF009002E0FFF789FF00909DF800001F
:102020000128F8D09DF8000008BD01B52DED020B88
:102030006A46002104E013780370521C401C491CBE
:102040000429F8D30EBDF0B50A4600210023002470
:1020500000BF3DE0012505FA01F3156805EA030418
:102060009C4234D105684F000326BE40B54305604D
:1020700015794E00B5400668354305601579012D88
:1020800002D01579022D16D185684F000326BE4077
:10209000B543856055794E00B54086683543856007
:1020A000456801268E40B5434560456896798E4067
:1020B000B6B235434560C5684F000326BE40B54300
:1020C000C560D5794E00B540C6683543C560491C2A
:1020D0001029BFD3F0BDF0B5002300244D07ED0E4D
:1020E00002FA05F3CE1000F1200555F826504E07F0
:1020F000F70E0F26BE40B543CF1000F1200646F87C
:102100002750CE1000F1200555F8265045EA03046B
:10211000CE1000F1200545F82640F0BD4183704700
:10212000018370472DE9F0472DED068B07460E46DB
:102130009146002423E004EB440006EBC00000EBD2
:10214000840090ED000A10EE101A084608F092FE86
:1021500041EC1A0B634890ED000B53EC102B51EC43
:102160001A0B08F049F941EC190B08F013F904EBCC
:10217000440106EBC10141F82400601C04B2062CA6
:10218000D9DB002450E0601C05B249E004EB4400B8
:1021900006EBC00000EB850090ED000A04EB440064
:1021A00006EBC00000EB8400D0ED000A80EE208A30
:1021B000B5EEC08AF1EE10FA30D007EB850090ED55
:1021C000000A07EB8400D0ED000A08EE600A07EB76
:1021D000850080ED000AA8461DE008EB480006EBEC
:1021E000C00000EB850090ED000A08EB480006EB0C
:1021F000C00000EB8400D0ED000A08EE600A08EB96
:10220000480006EBC00000EB850080ED000A08F1F5
:1022100001000FFA80F8B8F1060FDEDB681C05B28A
:10222000062DB3DB601C04B2062CACDB052445E0B4
:1022300004EB440006EBC00000EB840090ED000AC4
:1022400007EB8400D0ED000A80EE801A07EB8400D3
:1022500080ED001AB7EE000A04EB440006EBC00064
:1022600000EB840080ED000A002523E004EB44002D
:1022700006EBC00000EB850090ED000AB0EE408A4E
:1022800007EB850090ED000A07EB8400D0ED000A13
:1022900008EE600A07EB850080ED000A9FED120A48
:1022A00004EB440006EBC00000EB850080ED000A63
:1022B000681C05B2A542D9DB601E04B2002CB7DA57
:1022C000002409E007EB840090ED000A09EB84008C
:1022D00080ED000A601C04B2062CF3DBBDEC068B1B
:1022E000BDE8F087B0010020000000001CB501210E
:1022F000072005F091F84FF40070009001208DF850
:10230000040000208DF8060003208DF80500012050
:102310008DF8070069460248FFF795FE1CBD0000D6
:1023200000040240014800787047000020010020AE
:10233000014800787047000021010020084800880B
:1023400000EE900AF8EE600ADFED061A80EEA11AA0
:10235000DFED050A61EE200AB0EE600A704700006A
:1023600048640020000080453333114200BFFEE77F
:1023700018B50246002003E0135C0DF80030401C45
:102380008842F9DB9DED000A18BD10B500F054FF3E
:10239000642007F05FFA00F0F9FE642007F05AFAB3
:1023A00010BD000010B52DED068B00F087F9B24886
:1023B000007F68BBB148D0ED051AB0EE611AD0EDD0
:1023C000041AF0EE610AD0ED031AB0EE610A04F0CF
:1023D000D3FDAA48D0ED081AB0EE611AD0ED071A65
:1023E000F0EE610AD0ED061AB0EE610A00F012FAC2
:1023F000A248D0ED081AB0EE611AD0ED071AF0EE3F
:10240000610AD0ED061AB0EE610AFEF76DFC2FE10D
:102410009A4890ED0B3AF0EE432A90ED0A3AB0EE6E
:10242000432A90ED093AF0EE431A90ED053AB0EEEA
:10243000431A90ED043AF0EE430A90ED033AB0EE01
:10244000430A01F02FF88E4890ED000A8D4880ED88
:10245000000A8D4890ED000A8A4880ED010A8B48F9
:1024600090ED000A874880ED020A894890ED000A45
:10247000844880ED030A824890ED000A854880ED8B
:10248000000A814890ED000A824880ED010A7F48E9
:1024900090ED000A7F4880ED020A7D4890ED000A29
:1024A0007C4880ED030A774890ED000AD0ED010AE0
:1024B00020EE200A784880ED000A724890ED000A6C
:1024C000D0ED020A20EE200A744880ED000A6D4823
:1024D00090ED000AD0ED030A20EE200A704880ED4E
:1024E000000A684890ED010A20EE000A6D4880ED70
:1024F000000A644890ED010AD0ED020A20EE200A9D
:10250000694880ED000A5F4890ED010AD0ED030AAA
:1025100020EE200A654880ED000A5A4890ED020A34
:1025200020EE000A624880ED000A564890ED020A4B
:10253000D0ED030A20EE200A5E4880ED000A5148E3
:1025400090ED030A20EE000A5B4880ED000A554832
:1025500090ED000A5648D0ED000A70EE200AB7EE62
:10256000000AB0EE001A01EE600A10EE101A0846DA
:1025700008F080FC41EC190B474890ED000A4D48EB
:10258000D0ED000A30EE200AF0EE000A20EE200A1C
:1025900010EE101A084608F06DFC41EC1A0BB0EE74
:1025A000491AF0EE691AB0EE4A0AF0EE6A0A06F02D
:1025B00093FFB0EE408AF0EE608A51EC180B07F002
:1025C000E9FE2E4948603548D0ED000A374890EDC5
:1025D000001A70EEC10AB0EE001A60EE810AB0EE89
:1025E000600A07F045FA254880ED000A304890ED72
:1025F000000AF8EE000A20EE200A2F48D0ED000A6B
:10260000B0EE001A01EE600AF7EE000A30EE200A82
:1026100010EE101A084608F02DFC41EC190B224868
:1026200090ED000AF0EE000A20EE200A1C48D0EDE2
:10263000000AB0EE001A01EE200A10EE101A084649
:1026400008F018FC41EC1A0BB0EE491AF0EE691ACA
:10265000B0EE4A0AF0EE6A0A06F03EFFB0EE408A9B
:10266000F0EE608A51EC180B07F094FE0349886085
:10267000BDEC068B10BD0000D05F0020545F002031
:102680009401002084630020980100209C01002018
:10269000A00100209C620020E8000020EC00002047
:1026A000F0000020F4000020F8000020FC000020D2
:1026B00000010020040100200801002010B58AB0AC
:1026C00001A9881D00F0FAFD002423E0032C10DA94
:1026D00001A830F9140000EE100AB8EEC00ADFEDD0
:1026E0003D0A80EE201A04A800EB840080ED001A59
:1026F0000FE001A830F9140000EE100AB8EEC00A8D
:10270000DFED350A80EE201A04A800EB840080ED8E
:10271000001A641C062CD9DB9DED040A2F4880EDBD
:10272000060A9DED050A80ED070A9DED060A80ED7B
:10273000080A9DED070ADFED2A0A20EE200ADFEDE8
:10274000290A80EE201A80ED031A9DED080ADFEDBC
:10275000240A20EE200ADFED230A80EE201A80ED05
:10276000041A9DED090ADFED1E0A20EE200ADFEDB6
:102770001D0A80EE201A80ED051A90ED060A1A480F
:10278000D0ED000A30EE600AD0ED030A20EE200AF8
:10279000124880ED090A90ED070A1348D0ED010AAE
:1027A00030EE600AD0ED040A20EE200A0B4880EDDE
:1027B0000A0A90ED080A0C48D0ED020A30EE600AD1
:1027C000D0ED050A20EE200A044880ED0B0A0AB07D
:1027D00010BD0000000000456F128341545F0020CF
:1027E000DB0F494000003443D05F00200EB500BF2E
:1027F0000120074908770AE0FFF7D4FD02A800216D
:1028000002230A46CDE90010084602F077FBF3E701
:10281000D05F0020F7EE002AF0EE621AF6EE002AF2
:10282000B0EE622AF7EE002A70EE622AF0EEE22A9B
:10283000B6EE003AF4EEC32AF1EE10FA14D2F0EE3E
:10284000E02AB6EE003AF4EEC32AF1EE10FA0BD20B
:10285000F0EEC12AB6EE003AF4EEC32AF1EE10FA19
:1028600002D2042056490870F7EE002A70EE222AA0
:10287000F0EEE22AB6EE003AF4EEC32AF1EE10FAD8
:1028800014D2F0EEE02AB6EE003AF4EEC32AF1EEEE
:1028900010FA0BD2F0EEC12AB6EE003AF4EEC32ADB
:1028A000F1EE10FA02D2052045490870F0EEC02A78
:1028B000B6EE003AF4EEC32AF1EE10FA18D2F7EEB3
:1028C000002A70EEE22AF0EEE22AB6EE003AF4EECA
:1028D000C32AF1EE10FA0BD2F0EEC12AB6EE003A9E
:1028E000F4EEC32AF1EE10FA02D202203449087045
:1028F000F0EEC02AB6EE003AF4EEC32AF1EE10FA7A
:1029000018D2F7EE002A70EEA22AF0EEE22AB6EE16
:10291000003AF4EEC32AF1EE10FA0BD2F0EEC12A1F
:10292000B6EE003AF4EEC32AF1EE10FA02D203201A
:1029300023490870F0EEC02AB6EE003AF4EEC32A3E
:10294000F1EE10FA18D2F0EEE02AB6EE003AF4EE0C
:10295000C32AF1EE10FA0FD2F7EE002A71EE622AC6
:10296000F0EEE22AB6EE003AF4EEC32AF1EE10FAE7
:1029700002D2002012490870F0EEC02AB6EE003AEA
:10298000F4EEC32AF1EE10FA18D2F0EEE02AB6EE19
:10299000003AF4EEC32AF1EE10FA0FD2F7EE002A55
:1029A00071EE222AF0EEE22AB6EE003AF4EEC32AE5
:1029B000F1EE10FA02D201200149087070470000C0
:1029C0002001002003B56A46002004E013780B7054
:1029D000521C491C401C0428F8D30CBD2DE9F043BF
:1029E0002DED088BB9B005460E4617469846B0EE59
:1029F000408A4FF000099FED8C0BB0EE40BAF0EE2C
:102A000060BA9FED8B0BB0EE409AF0EE609A9FEDAE
:102A1000880BB0EE40AAF0EE60AA00200AE008EBB6
:102A2000800191ED000A30A901EB800181ED000ADF
:102A3000411CC8B20628F2DB9FED7F0B804880ED79
:102A4000000BC5E0694624A804F09AFD00241FE0AD
:102A500004EB440005EB800090ED000A8DED360A92
:102A600004EB440005EB800090ED010A8DED370A80
:102A700004EB440005EB800090ED020A8DED380A6E
:102A800036AB30AA694624A805F0D0FC601CC4B25D
:102A9000062CDDDB2AAA694624A8FFF743FB9DED3F
:102AA0002D0A20EE000ADDED330A20EEA01AC0EE5A
:102AB000010A9DED2A0A20EE000A30EE000A9DED83
:102AC0002B1ADDED2B1A01EE210A9DED2C1ADDEDFE
:102AD0002C1A01EE210A30EE800ADDED2E0A60EE9E
:102AE000A00A9DED341A21EE011AC0EE811A70EE93
:102AF000210A9DED2F0A20EE000A9DED351A21EEE8
:102B0000011AC0EE011A30EEA10A10EE104A20465A
:102B100008F0B0F941EC1A0B53EC192B51EC1A0BDD
:102B200007F076FE28D29FED470B53EC102B44485C
:102B300090ED000B51EC100B07F012FD404A03C260
:102B4000002012E030A901EB800191ED000A2AA9D2
:102B500001EB8001D1ED000A30EE600A30A901EBF3
:102B6000800181ED000A411CC8B20628EADBB0EE04
:102B70004A9AF0EE6A9A24E09FED320B53EC102B48
:102B80002F4890ED000B51EC100B07F07DFE2C4A06
:102B900003C22B4890ED000B51EC100B07F0FAFB31
:102BA00008EE900A9FED291ADFED290AB0EE680AB7
:102BB000FEF720FB10EE104A204608F05BF9204A91
:102BC00003C2484609F10109B0F57A7F00D907E050
:102BD00053EC1B2B51EC190B07F054FFFFF432AFF1
:102BE00000BF9DED330A20EE080A87ED000A9DED37
:102BF000340A20EE080A87ED010A9DED350A20EE21
:102C0000080A87ED020A9DED300A86ED000A9DED67
:102C1000310A86ED010A9DED320A86ED020A39B0CD
:102C2000BDEC088BBDE8F083BBBDD7D9DF7CDB3DB5
:102C300000000000000059409A9999999999B93F6C
:102C4000B00100200000000000000840F90215500B
:102C500000000000B4EEE00AF1EE10FA01DDB0EE83
:102C6000600AB4EEC10AF1EE10FA01D2B0EE410AE8
:102C70007047000010B5FE4CB4222146FD4804F018
:102C8000B1FD20460068FC4988427CD1204690ED89
:102C9000010AFA4880ED000A204690ED020AF74842
:102CA00080ED010A204690ED030AF44880ED020A07
:102CB000204690ED040AF14880ED030A204690ED8D
:102CC000050AEE4880ED040A204690ED060AEB481E
:102CD00080ED050A204690ED070AE84880ED060AD7
:102CE000204690ED080AE54880ED070A204690ED61
:102CF000090AE24880ED080A204690ED0A0ADF48FA
:102D000080ED090A204690ED0B0ADC4880ED0A0AA6
:102D1000204690ED0C0AD94880ED0B0A204690ED34
:102D20000D0AD64880ED0C0A204690ED0E0AD348D5
:102D300080ED0D0A204690ED0F0AD04880ED0E0A76
:102D4000204690ED100ACD4880ED0F0A204690ED08
:102D5000110ACA4880ED100A204690ED120AC748B1
:102D600080ED110A204690ED130AC44880ED120A46
:102D7000204690ED140AC14880ED130A204690EDDC
:102D8000150ABE4800E080E080ED140A204690ED70
:102D9000160ABA4880ED150A204690ED170AB74882
:102DA00080ED160A204690ED180AB44880ED170A07
:102DB000204690ED190AB14880ED180A204690EDA2
:102DC0001A0AAE4880ED190A204690ED1B0AAB485E
:102DD00080ED1A0A204690ED1C0AA84880ED1B0AD7
:102DE000204690ED1D0AA54880ED1C0A204690ED76
:102DF0001E0AA24880ED1D0A204690ED1F0A9F483A
:102E000080ED1E0A204690ED200A9C4880ED1F0AA6
:102E1000204690ED210A994880ED200A204690ED49
:102E2000220A964880ED210A204690ED230A934815
:102E300080ED220A204690ED240A904880ED230A76
:102E4000204690ED250A8E4880ED000A204690ED40
:102E5000260A8B4880ED010A204690ED270A884813
:102E600080ED020A204690ED280A854880ED030A8D
:102E7000204690ED290A824880ED040A204690ED14
:102E80002A0A7F4880ED050A62E17B48784908609C
:102E90009FED7C0A084680ED010A784880ED000A23
:102EA0009FED780A084680ED020A744880ED010A19
:102EB0009FED740A084680ED030A704880ED020A0F
:102EC0009FED700A084680ED040A6C4880ED030A05
:102ED0009FED6C0A084680ED050A684880ED040AFB
:102EE0009FED680A084680ED060A644880ED050AF1
:102EF0009FED640A084680ED070A604880ED060AE7
:102F00009FED600A084680ED080A5C4880ED070ADC
:102F10009FED5C0A084680ED090A584880ED080AD2
:102F20009FED580A084680ED0A0A544880ED090AC8
:102F30009FED540A084680ED0B0A504880ED0A0ABE
:102F40009FED500A084680ED0C0A4C4880ED0B0AB4
:102F50009FED4C0A084680ED0D0A484880ED0C0AAA
:102F60009FED480A084680ED0E0A444880ED0D0AA0
:102F70009FED440A084680ED0F0A404880ED0E0A96
:102F80009FED400A084680ED100A3C4880ED0F0A8C
:102F90009FED3C0A084680ED110A384880ED100A82
:102FA0009FED380A084680ED120A344880ED110A78
:102FB0009FED340A084680ED130A304880ED120A6E
:102FC0009FED300A084680ED140A2C4880ED130A64
:102FD0009FED2C0A084680ED150A284880ED140A5A
:102FE0009FED280A084680ED160A244880ED150A50
:102FF0009FED240A084680ED170A204880ED160A46
:103000009FED200A084680ED180A1C4880ED170A3B
:103010009FED1C0A084680ED190A184880ED180A31
:103020009FED180A084680ED1A0A144880ED190A27
:103030009FED140A084680ED1B0A104880ED1A0A1D
:103040009FED100A084680ED1C0A0C4880ED1B0A13
:103050009FED0C0A084680ED1D0A084880ED1C0A09
:103060009FED080A084680ED1E0A04480CE00000A7
:103070009463002004000E08A55A5AA5B4610020EC
:10308000D05F00200000000080ED1D0A1FED030A44
:10309000084680ED1F0A2F4880ED1E0A1FED070A23
:1030A000084680ED200A2B4880ED1F0A1FED0B0A11
:1030B000084680ED210A274880ED200A1FED0F0AFF
:1030C000084680ED220A234880ED210A1FED130AED
:1030D000084680ED230A1F4880ED220A1FED170ADB
:1030E000084680ED240A1B4880ED230A1FED1B0AC9
:1030F000084680ED250A184880ED000A1FED1F0ADA
:10310000084680ED260A144880ED010A1FED230AC7
:10311000084680ED270A104880ED020AB7EE000A43
:10312000084680ED280A0C4880ED030AB7EE000A35
:10313000084680ED290A084880ED040AB7EE000A27
:10314000084680ED2A0A044880ED050A05F0A0FD36
:1031500010BD0000B4610020D05F002003460022B3
:10316000002103E033F911000244491C0A29F9DB6C
:103170000A2092FBF0F210B270470000024A127867
:1031800020F8121070470000100100202DE9FF41C7
:103190000024002500269FED240A244880ED000A23
:1031A0009FED210A224880ED000A9FED1F0A214869
:1031B00080ED000A002710E0C82006F085FB694674
:1031C00002A800F07BF8BDF908000444BDF90A002C
:1031D0000544BDF90C0006447F1CB7F5FA7FEBD31C
:1031E0004FF4FA7094FBF0F000EE100AB8EEC00A4B
:1031F0000E4880ED000A4FF4FA7095FBF0F000EEF7
:10320000100AB8EEC00A0A4880ED000A4FF4FA70BE
:1032100096FBF0F000EE100AB8EEC00A054880ED0B
:10322000000ABDE8FF81000000000000140100203A
:10323000180100201C01002010B580216B2000F037
:103240001BF9962006F006FB0321682000F014F914
:10325000962006F0FFFA03216B2000F00DF90F20F5
:1032600006F0F8FA10216A2000F006F90F2006F0A7
:10327000F1FA00216C2000F0FFF80F2006F0EAFAC6
:103280000021192000F0F8F80F2006F0E3FA0221DF
:103290001A2000F0F1F80F2006F0DCFA18211B20AC
:1032A00000F0EAF80F2006F0D5FA18211C2000F0F3
:1032B000E3F80F2006F0CEFA10BD000070B504460A
:1032C0000D464FF400615F48FEF728FF5E4A0E216D
:1032D0003B2004F0F9F94FF400615A48FEF720FF53
:1032E00059484078584A127840EA022001B25748BB
:1032F000FFF744FF5448C078534A927840EA0220CE
:1033000001B252481430FFF739FF4F4840794E4A16
:10331000127940EA022001B24C482830FFF72EFF14
:103320004948407A484A127A40EA022001B24748A6
:103330005030FFF723FF4448C07A434A927A40EA6C
:10334000022001B241486430FFF718FF3E48407B3D
:103350003D4A127B40EA022001B23C487830FFF738
:103360000DFF3B480078401C0A2190FBF1F201FB65
:1033700012003749087035485030FFF7EFFE3549E5
:10338000088032486430FFF7E9FE334908802F484F
:103390007830FFF7E3FE314908802E48B0F900008D
:1033A00000EE100AB8EEC00A2D48D0ED000A30EE4B
:1033B000600ABDEEC00A10EE100A00B22080264856
:1033C000B0F9000000EE100AB8EEC00A2548D0EDB2
:1033D000000A30EE600ABDEEC00A10EE100A00B21C
:1033E00060800846B0F9000000EE100AB8EEC00A8E
:1033F0001D48D0ED000A30EE600ABDEEC00A10EEA6
:10340000100A00B2A0801148FFF7A8FE17490880F3
:103410000E481430FFF7A2FE154908800B482830EB
:10342000FFF79CFE134908801048B0F9000028807F
:103430000F48B0F9000068800846B0F90000A88085
:1034400070BD0000000402406C660020E0650020B2
:103450001001002024010020260100202801002066
:1034600014010020180100201C0100202A01002066
:103470002C0100202E01002070B505460C464FF4AB
:1034800000610748FEF74AFE284604F005F9204689
:1034900004F002F94FF400610148FEF741FE70BDEF
:1034A0000004024000B52DED068BB0EE403AF0EE80
:1034B000603AB0EE414AF0EE615AF0EE424AB0EEA8
:1034C000625AF5EEC05AF1EE10FA09D1F5EEC04A93
:1034D000F1EE10FA04D1B5EEC05AF1EE10FA7DD03B
:1034E00065EEA50A44EEA40A45EE050AB0EE600AB0
:1034F00006F03EFAF0EE402A25EEA20AF0EE405A1F
:1035000024EEA20AF0EE404A25EE220AB0EE405A1E
:10351000A94890ED000AA948D0ED000A20EE200A43
:10352000A748D0ED000AA74890ED001AF0EE407AC7
:1035300040EEC17AA24890ED000A9F48D0ED000A03
:1035400020EE200A9F48D0ED000A9C4890ED001A1A
:10355000B0EE408A00EE818A9948D0ED000A90EDE5
:10356000001AB6EE000A10EE810A9448D0ED000A67
:1035700090ED001AF0EE408A40EE818A24EEA80A0F
:10358000B0EE409A05EE489A25EE270AF0EE409AF2
:1035900045EEE89A25EE880AB0EE40AA04EEE7AAC6
:1035A000894890ED000AB5EEC00AF1EE10FA40DD50
:1035B00090ED000A60EE090A844890ED000A9FED44
:1035C000841A00EE810A80ED000A7F4890ED000A1F
:1035D00060EE290A7F4890ED000A00E051E09FED7F
:1035E0007C1A00EE810A80ED000A774890ED000A0F
:1035F00060EE0A0A784890ED000A9FED751A00EE19
:10360000810A80ED000A714890ED000A33EE000A4D
:10361000B0EE403A6F4890ED000A33EE800AF0EECB
:10362000403A6D4890ED000A34EE000AB0EE404A90
:103630000EE09FED6A0A654880ED000A9FED670A7B
:10364000644880ED000A9FED650A634880ED000A3A
:103650006348D0ED000AB0EE430A00EE890AB0EEEE
:10366000403AD0ED000AB0EE630A00EEA90AF0EE8F
:10367000403AD0ED000AB0EE440A00EE8A0AB0EEFD
:10368000404A9FED580A23EE000AB0EE403A9FED03
:10369000550A23EE800AF0EE403A9FED520A24EEDE
:1036A000000AB0EE404A464890ED006A4248D0ED2C
:1036B000006A444890ED007AB1EE660A20EE030AF3
:1036C00007EE630A3D48D0ED000A00EEC40A3C480C
:1036D000D0ED000A30EE200A80ED000A26EE030A43
:1036E00007EE040A3548D0ED000A00EEE30A32483E
:1036F000D0ED000A30EE200A80ED000A26EE230A03
:1037000006EEC40A2D48D0ED000A00EE830A2D48CB
:10371000D0ED000A30EE200A80ED000A26EE040A01
:1037200006EEA30A07EE430A2448D0ED000A30EE65
:10373000200A80ED000A2248D0ED000A90ED001A20
:1037400060EE810A1C4890ED001AD0ED001A41EE9F
:10375000210A1C4890ED001AD0ED001A41EE210A12
:10376000164890ED001AD0ED001A41EE210AB0EE95
:10377000600A06F0FDF8F0EE402A114890ED000ACC
:1037800020EE220A80ED000A0B4890ED000A20EEA0
:10379000220A80ED000A0B4890ED000A20EE220A72
:1037A00080ED000A054890ED000A20EE220A80ED27
:1037B000000ABDEC068B00BD98010020A00100208E
:1037C000940100209C01002090010020A401002011
:1037D0006F12033BA8010020AC0100200000000094
:1037E0008C0100206F12833A00BFFEE730B505461A
:1037F0000C4622460021284600F001F830BD2DE994
:10380000F04105460B4694460027002402E03F02A3
:103810001F43641C042CFAD3604605F003062946B6
:1038200046B1344603E001F8013B401E641C08B178
:10383000042CF8D30A4601E080C2001F0428FBD202
:10384000114602E001F8013B401E0028FAD1BDE814
:10385000F081000010B59FED684A20EE044A24EE86
:10386000004ADFED664A04EE804ADFED654A34EE39
:10387000244AB0EE442A9FED604A20EE844A24EEAA
:10388000204ADFED5E4A04EEA04ADFED5D4A34EEE9
:10389000244AF0EE442A9FED584A21EE044A24EED1
:1038A000014ADFED564A04EE814ADFED554A34EE17
:1038B000244AB0EE443A9FED504A21EE844A24EE69
:1038C000214ADFED4E4A04EEA14ADFED4D4A34EEC7
:1038D000244AF0EE443A9FED4B4A22EE044ABDEEF4
:1038E000C44A14EE100A484991ED084ABDEEC44A94
:1038F00014EE101A0844454908609FED424A22EE32
:10390000844ABDEEC44A14EE100A3F4991ED084ABC
:10391000BDEEC44A14EE101A08443C4948609FEDBD
:10392000394A23EE044ABDEEC44A14EE100A364961
:1039300091ED084ABDEEC44A14EE101A084433490A
:1039400088609FED304A23EE844ABDEEC44A14EEEF
:10395000100A2D4991ED084ABDEEC44A14EE101A22
:1039600008442A49C8600846006840F2EE218842AF
:1039700002DD0846254908602448406840F2EE21EF
:10398000884202DD0846214948602048806840F2AC
:10399000EE21884202DD08461C4988601B48C06849
:1039A00040F2EE21884202DD08461849C8601748F7
:1039B0000068642802DA64201449086013484068EB
:1039C000642802DA6420114948601048806864283D
:1039D00002DA64200D4988600C48C068642802DA65
:1039E00064200A49C860094CE368A26861682068DD
:1039F00003F09CFA10BD0000C5DB14BB6C7CC63D17
:103A00007407F13D00007A44F05F0020246000203C
:103A10007047000070B5002100230F22C4781CB34A
:103A2000174C246804F4E064C4F5E064C4F307218F
:103A3000C1F10404E3B20A4144789C40E1B28478C5
:103A4000144021430C07210E0E4C05786155047873
:103A500004F01F050124AC4005786D11AD0005F19F
:103A6000E025C5F8004109E0047804F01F050124B1
:103A7000AC40054D0678761145F8264070BD000033
:103A80000CED00E000E400E080E100E002490143C9
:103A9000024A1160704700000000FA050CED00E0DA
:103AA0007047000010B50348006810B10148006875
:103AB000804710BD3000002070B5044600F0BCF80F
:103AC0000020454908704549087045490870454936
:103AD00008604549086045490870454908704549EE
:103AE00008704549086045490860454908604549EE
:103AF0000870454800680A21B0FBF1F043490860AE
:103B00004348006858B14348056845B140480668D5
:103B100003E0761E002028602D1D002EF9D1002024
:103B20003D4908603D4908603D4908603D490860DD
:103B30003D4908603D4908603D4908603D490870BD
:103B400001F020FE01F05AFE204601F0B3FB208870
:103B500000B170BD204601F013FC208800B1F8E7E9
:103B6000204601F019FC208800B1F2E7204601F060
:103B70007BFC208800B1ECE7204601F033FE208872
:103B800000B1E6E7204601F09BFF208800B1E0E7A6
:103B9000204602F067FA208800B1DAE7204601F0FB
:103BA000B7FB208800B1D4E7204602F0D1FE208880
:103BB00000B1CEE7204602F099F9208800B1C8E7AD
:103BC000204602F021FF208800B1C2E701F09CFAF4
:103BD000FFF766FF00BFBCE744000020450000205F
:103BE00078000020D0000020D40000205E000020DB
:103BF0005F000020600000206C00002070000020AA
:103C00007400002080000020CCAF00087C00002061
:103C10009CAF000898AF0008240000202800002076
:103C20002C0000203000002034000020380000204C
:103C30003C000020AE0000200648006806490968E4
:103C400000EB8100054908600846006820F0070085
:103C50000860704798AF00089CAF0008D8000020AB
:103C600008480078012800D0704707480078FA28F3
:103C700000DBF9E704480078401C0349087000BFE6
:103C8000F2E70000450000204400002010B50024A9
:103C90002D480078012800D010BD00BFFCF708FBBC
:103CA000044600BF2948007828B900BF2046FCF729
:103CB00003FB00BFF0E725480078401E2349087049
:103CC00008460078002805DD00BF2046FCF7F4FA1E
:103CD00000BFE1E71E480078002805DD00BF204650
:103CE000FCF7EAFA00BFD7E701F038FD1949087080
:103CF0000846007800EB4000174951F820001749AA
:103D000008600846006816490968884205D100BF66
:103D10002046FCF7D1FA00BFBEE710480068D0F893
:103D20009000401C0D490968C1F890000D480068DA
:103D3000401C0C490860FCF7ABFB00BF2046FCF7B9
:103D4000BBFA00BF00BFA7E74500002044000020E9
:103D5000780000205F000020E8130020D40000203D
:103D6000D0000020A400002010B500241F480078D7
:103D7000002800DD10BD1E480078002800DDF9E7AE
:103D800000BFFCF795FA044600BF01F0E7FC1949B3
:103D900008700846007800EB4000174951F82000F1
:103DA000164908600846006815490968884205D127
:103DB00000BF2046FCF780FA00BFDBE70F48006831
:103DC000D0F89000401C0D490968C1F890000D48DA
:103DD0000068401C0B490860FCF755FB00BF2046FB
:103DE000FCF76AFA00BF00BFC4E7000044000020EF
:103DF000780000205F000020E8130020D40000209D
:103E0000D0000020A400002070B50446002518480A
:103E10000078002803DD46F66250208070BD15480A
:103E20000078012803D045F689602080F6E7124823
:103E30000078FA2803DB45F209202080EEE700BF76
:103E400000BFFCF735FA054600BF00BF0A480078FE
:103E5000401C0949087001F087FD00BF00BF2846DB
:103E6000FCF72AFA00BF00BF0020208000BFD5E782
:103E70004400002045000020780000202DE9F0419A
:103E800005460C461646002700BF00BFFCF710FA97
:103E9000074600BF00BF012D03D000200D49087068
:103EA00002E001200B49087014B10B48046006E0E1
:103EB0000A4800680A21B0FBF1F00749086000BF1A
:103EC00000BF3846FCF7F8F900BF00BF0020308083
:103ED000BDE8F081800000207C000020CCAF00080D
:103EE00070B50446002520480078002803DD46F61A
:103EF0006550208070BD1D480078012803D045F62C
:103F000089602080F6E71A48007818B946F66450B0
:103F10002080EFE700BF00BFFCF7CAF9054600BFED
:103F200000BF13480078401E114908700846007809
:103F300000280ADD00BF00BF2846FCF7BDF900BF1E
:103F400000BF46F663502080D4E701F01BFD00BFA0
:103F500000BF2846FCF7B0F900BF00BFFFF704FF21
:103F60000020208000BFC5E744000020450000205D
:103F7000780000202DE9F04104460E4617461D4604
:103F80004FF0000818480078002804DD42F6E16090
:103F90002880BDE8F0811CB945F6C3502880F8E7B9
:103FA00000BF00BFFCF784F9804600BF00BF0F4888
:103FB0002060276200206062666004F1080001F062
:103FC000E7FA204601F064FD09480088401C0849D2
:103FD000088000BF00BF4046FCF76EF900BF00BF7D
:103FE0000020288000BFD4E74400002053454D4105
:103FF000880000202DE9F04788B0064689469046A3
:104000001C46109D4FF0000A60480078002806DD2D
:1040100046F2AE102880002008B0BDE8F08726B92F
:1040200045F6C35028800020F6E7B8F1000F03D012
:10403000B8F5004F02D100E000BF04E045F625606E
:1040400028800020E8E700BF51493068884204D04A
:1040500045F6C45028800020DEE70CB10020206027
:1040600000BF00BFFCF724F9824600BF00BF306AE2
:1040700088B1306A401E30620CB1706A2060376AC5
:1040800000BF00BF5046FCF717F900BF00BF00207B
:1040900028803846C0E708F4004060B1376A00BFA6
:1040A00000BF5046FCF708F900BF00BF46F2B01051
:1040B00028803846B0E73748007800280BDD00BF7D
:1040C00000BF5046FCF7F8F800BF00BF46F663504B
:1040D00028800020A0E74B4606223146684601F0C2
:1040E000CFF900BF00BF5046FCF7E6F800BF00BFA5
:1040F000FFF73AFE00BF00BFFCF7DAF8824600BFC8
:1041000000BF2548006890F8350030B101280CD078
:1041100002281AD0032821D110E01CB11E480068E3
:10412000006C20600020288024E01CB11A48006840
:10413000006C206046F2A91028801BE00CB1002022
:10414000206047F2D920288014E01CB11248006892
:10415000006C206045F6C25028800BE046F62E60C9
:10416000288000BF00BF5046FCF7A6F800BF00BF84
:10417000002051E700BF376A00BF00BF5046FCF780
:104180009BF800BF00BF384646E70000440000200F
:1041900053454D4178000020D00000202DE9F0412A
:1041A00005460E4614462DB945F6C3502080002022
:1041B000BDE8F0814EB1B6F5007F07D0B6F5004FEF
:1041C00005D0B6F5024F04D102E000BF00BF00BF2A
:1041D00004E045F6256020800020E9E700BF0A4999
:1041E0002868884204D045F6C45020800020DFE7CC
:1041F000FCF774FD8046234642463146284601F0CE
:104200006BFC07463846D3E753454D4110B504468D
:1042100012480078E8B901F0A1FA1149087008467F
:104220000078104908700E48007800EB40000E49F5
:1042300051F820000D490860084600680C490860E4
:10424000012006490870FCF70DF943F699202080FB
:1042500002E045F68A60208010BD00004500002085
:104260005F0000205E000020E8130020D400002042
:10427000D00000202DE9F04107464FF0000800BFB4
:1042800000BFFCF715F8804600BF00BF00203B4987
:1042900008803B4908603B4908603B4908603B494E
:1042A00008603B49088100BF00BF4046FCF704F8A6
:1042B00000BF00BF00BF00BFFBF7FAFF804600BF92
:1042C00000BF3448046800BF00BF4046FBF7F4FF5E
:1042D00000BF00BF21E000BF00BFFBF7E9FF804641
:1042E00000BF00BF00207834E06320602063A0613D
:1042F000A082E0826062A062FCF7F0FC2062783C61
:1043000004F164060020B081D4F8BC4000BF00BFB7
:104310004046FBF7D1FF00BF00BF002CDBD100BF40
:1043200000BFFBF7C5FF804600BF00BF1A48056805
:1043300000BF00BF4046FBF7BFFF00BF00BF12E059
:1043400000BF00BFFBF7B4FF804600BF00BF05F110
:1043500020060020B081AD6900BF00BF4046FBF7DA
:10436000ABFF00BF00BF002DEAD102F005FA02F05A
:1043700047FC00203880BDE8F08100008E0000205E
:10438000A0000020B4000020C00000207000002029
:10439000DC130020A800002064000020F8B50446CB
:1043A00000266946324800F0E7FCBDF8000018B16D
:1043B000BDF800002080F8BD6A460021022000F010
:1043C0003BFDBDF8000018B1BDF800002080F2E709
:1043D00000BF00BFFBF76CFF064600BF00BF002018
:1043E0002449086000BF00BF3046FBF765FF00BFEF
:1043F00000BF00252048006820490968884205D987
:104400001D4800681D490968B0FBF1F525B91A4837
:1044100000680A21B0FBF1F56A460021284600F049
:104420000BFD6946124800F0C1F9BDF8000018B153
:10443000BDF800002080BEE700BF00BFFBF738FFDB
:10444000064600BF00BF00200D490860094800680B
:104450000C49086001200C49087000BF00BF3046BD
:10446000FBF72AFF00BF00BF0020208000BFA2E7AB
:104470007018002090000020CCAF0008B4AF0008F6
:10448000A0000020940000209C00002010B50348EC
:10449000006810B101480068804710BD340000205A
:1044A0002DE9FF4F85B004469046DDE91995159F2B
:1044B000139E0020029061480078002805DD47F235
:1044C0004A10288009B0BDE8F08F1CB947F2AD1042
:1044D0002880F7E7B8F1000F03D147F24F1028808A
:1044E000F0E71EB946F62F602880EBE754480068D5
:1044F000874203D246F630602880E3E71498B8423A
:1045000003D346F631602880DCE71298402803D3B5
:1045100046F273202880D5E712983F2806D14948F3
:10452000844203D046F273202880CBE7204601F076
:10453000A9FD0020288009F0010088B109F00200DF
:1045400070B1B3460020049007E00020CBF80000D3
:104550000BF1040B0498401C04900498B842F4D367
:10456000149806EB80000390CDE90079324640466E
:10457000039B089900F0D2FA8346C4F82880089873
:10458000E06206982062129884F83700C4F800B000
:104590000398A06017986065179818B92A480068B2
:1045A000A06501E01798A065189860606662A7632F
:1045B000A4F83C904FF0000A08E0002104F17C00D0
:1045C00040F82A100AF1010000F0FF0ABAF1000FCA
:1045D000F3D004F16400169900F03EFF204600F08D
:1045E00039F800BF00BFFBF763FE029000BF00BFB9
:1045F00094F8370001F0D2F8204601F047F9204640
:1046000001F0F6FC11480088401C10490880104851
:104610000078012807D000BF00BF0298FBF74CFECE
:1046200000BF00BF4EE700BF00BF0298FBF744FE8B
:1046300000BF00BFFFF798FB00BF43E74400002026
:10464000C8AF0008181300207C000020AC00002038
:104650004500002010B504460348006818B1204604
:1046600001490968884710BD2400002070B5044640
:104670000D46002643480078002803DD47F24E101F
:10468000288070BD4048844203D147F24C102880F6
:10469000F7E77CB900BF00BFFBF70AFE064600BF84
:1046A00000BF3A48046800BF00BF3046FBF704FE75
:1046B00000BF00BF00BF00BFFBF7FAFD064600BF0A
:1046C00000BF94F8360008282DD2DFE800F0040976
:1046D0000E10080A0F11204601F018F92EE02DE007
:1046E00000BF204602F02CF828E000BF00BF00BF4A
:1046F000204602F025F894F83400082810D2DFE8AC
:1047000000F004070508090A0B0600BF00BF08E017
:1047100000BF00BF00BF00BF204600F071FF00E0F7
:1047200000BF00BF0AE000BF00BF3046FBF7C4FD7A
:1047300000BF00BF46F62D602880A2E700BF04F14D
:10474000640000F067FE204600F024F8204601F0E7
:1047500067FC0F480088401E0D490880204601F084
:1047600091FCFF2084F8360000BF00BF3046FBF705
:10477000A3FD00BF00BF00202880FFF7F5FA00BFAF
:104780007FE700004400002018130020D000002024
:10479000AC00002010B504460348006818B120465C
:1047A00001490968884710BD2800002070B50446FB
:1047B0000D46002615480078002803DD47F2551005
:1047C000288070BD00BF00BFFBF772FD064600BF2A
:1047D00000BF1CB10E48006884420AD100BF00BF70
:1047E0003046FBF769FD00BF00BF47F25710288035
:1047F000E7E700BF00BF3046FBF75EFD00BF00BF2C
:104800002946204601F0B0FC00BFDAE74400002052
:10481000D000002010B504460348006818B12046B7
:1048200001490968884710BD2C0000202DE9F04798
:1048300080460E4614461D464FF000096F4800782A
:10484000002805DD46F2AE1028800020BDE8F08784
:104850001EB1B6F5004F02D100E000BF04E045F6FE
:10486000256028800020F1E700BF0CB10020206007
:1048700000BF00BFFBF71CFD814600BF00BF6048C2
:104880000068406CA8B35E480068406C401E5C49FC
:10489000096848645A480068476C1CB15848006869
:1048A000006C2060FCF71AFA55490968096C401A37
:1048B00053490968C1F8A40051480068D0F8A8001D
:1048C0004F490968D1F8A410884207D24C480068C3
:1048D000D0F8A4004A490968C1F8A80000BF00BF89
:1048E0004846FBF7E9FC00BF00BF0020288038469F
:1048F000ACE7FFE706F4004058B100BF00BF4846F0
:10490000FBF7DAFC00BF00BF46F2B01028800020A1
:104910009CE73C48007800280BDD00BF00BF4846FC
:10492000FBF7CAFC00BF00BF46F66350288000209A
:104930008CE7434607220021084600F0A1FD00BF96
:1049400000BF4846FBF7B8FC00BF00BFFFF70CFAFA
:1049500000BF00BFFBF7ACFC814600BF00BF28488A
:10496000006890F8350020B1012826D0032834D102
:104970002CE0FCB122480068006C2060FCF7AEF926
:104980001F490968096C401A1D490968C1F8A4004B
:104990001B480068D0F8A80019490968D1F8A4108C
:1049A000884207D216480068D0F8A4001449096864
:1049B000C1F8A8000020288013E01CB1104800684E
:1049C000006C206046F2A91028800AE00CB100209B
:1049D000206047F2D920288003E046F62E60288028
:1049E00000BF00BF06480068476C00BF00BF4846D4
:1049F000FBF762FC00BF00BF384627E744000020F9
:104A0000D0000020780000202DE9F04106460D4638
:104A100014461DB1B5F5004F02D100E000BF05E01E
:104A200045F6256020800020BDE8F08100BFFCF73E
:104A300055F98046234642462946304601F020FC7F
:104A400007463846F0E700002DE9F04705460E46D8
:104A500017461C464FF0000A2E480078002804DD57
:104A600047F259102080BDE8F0871EB946F2D520E4
:104A70002080F8E71FB946F2D5202080F3E700BF79
:104A800000BFFBF715FC824600BF00BF0DB92248EE
:104A90000568286868B900BF00BF5046FBF70CFCEA
:104AA00000BF00BF00203060386047F25210208005
:104AB000D9E795F83C0000F0010068B900BF00BFDD
:104AC0005046FBF7F9FB00BF00BF002030603860A4
:104AD00047F254102080C6E700BF00BF5046FBF7E6
:104AE000EBFB00BF00BF4FF00008D5F8249003E0B7
:104AF00009F1040908F10108D9F800000028F7D0ED
:104B0000C6F80080A86BA0EB080038600020208069
:104B100000BFA8E744000020D0000020F0B5044604
:104B2000DDE9055602EB850020F007004FF0000C90
:104B3000071F3846C7F800C04FF4805C071F38468F
:104B4000C7F800C04FF0150C071F3846C7F800C063
:104B50004FF0140C071F3846C7F800C04FF0130C75
:104B6000071F3846C7F800C04FF0120C071F384621
:104B7000C7F800C04FF0110C071F3846C7F800C037
:104B80004FF0100C071F3846C7F800C04FF0090C53
:104B9000071F3846C7F800C04FF0080C071F3846FB
:104BA000C7F800C04FF0070C071F3846C7F800C011
:104BB0004FF0060C071F3846C7F800C04FF0050C31
:104BC000071F3846C7F800C04FF0040C071F3846CF
:104BD000C7F800C04FF0030C071F3846C7F800C0E5
:104BE0004FF0020C071F3846C7F800C04FF0010C09
:104BF000071F3846C7F800C04FF0000C071F3846A3
:104C0000C7F800C04FF0807C071F3846C7F800C0C7
:104C1000071F38463C60DFF85CC1071F3846C7F8FD
:104C200000C04FF0123C071F3846C7F800C04FF0D5
:104C3000033C071F3846C7F800C04FF0023C071F6F
:104C40003846C7F800C0071F38463B60071F384684
:104C500039604FF0310C071F3846C7F800C04FF0DD
:104C6000300C071F3846C7F800C04FF0290C071F4B
:104C70003846C7F800C04FF0280C071F3846C7F861
:104C800000C04FF0270C071F3846C7F800C04FF090
:104C9000260C071F3846C7F800C04FF0250C071F29
:104CA0003846C7F800C04FF0240C071F3846C7F835
:104CB00000C04FF0230C071F3846C7F800C04FF064
:104CC000220C071F3846C7F800C04FF0210C071F01
:104CD0003846C7F800C04FF0200C071F3846C7F809
:104CE00000C04FF0190C071F3846C7F800C04FF03E
:104CF000180C071F3846C7F800C04FF0170C071FE5
:104D00003846C7F800C04FF0160C071F3846C7F8E2
:104D100000C04FF0113C071F3846C7F800C04FF0E5
:104D2000103C071F3846C7F800C04FF0093C071F6A
:104D30003846C7F800C04FF0083C071F3846C7F890
:104D400000C04FF0073C071F3846C7F800C04FF0BF
:104D5000063C071F3846C7F800C04FF0053C071F48
:104D60003846C7F800C04FF0043C071F3846C7F864
:104D700000C0F0BD6962000870B505460C460A48DF
:104D80000078002803DD47F25D10208070BD0748E1
:104D9000854203D147F25B102080F7E72146284681
:104DA00001F050FB00BFF1E7440000201813002081
:104DB00010B51D48006810B11B4800688047FBF71C
:104DC0008DFF04461948006819490968884215D0C2
:104DD00016480068D0F89800201A14490968C1F8EC
:104DE000940012480068D0F89C0010490968D1F876
:104DF000941008440D490968C1F89C000C480068EB
:104E0000C0F8984009480068D0F8B400094909681A
:104E1000884205D20748006804490968C1F8B4000F
:104E200000200449086010BD38000020D000002098
:104E3000D4000020740000202DE9F04105460E4604
:104E4000144600272A480078002804DD47F2752020
:104E50002080BDE8F08127480078002803DD46F671
:104E600063502080F5E736B1022E05D0042E0AD01B
:104E7000082E09D101E000BF00BF1DB947F27E2016
:104E80002080E6E704E003E045F625602080E0E7C7
:104E900000BF00BF00BFFBF70BFA074600BF00BF13
:104EA00001201549096881F8360023463246294613
:104EB0001148006801F066FB208838B100BF00BFD0
:104EC0003846FBF7F9F900BF00BFC2E70A4800689F
:104ED00000F01CFD00BF00BF3846FBF7EDF900BF36
:104EE00000BFFEF741FF0020208000BFB1E70000B7
:104EF0004400002078000020D00000202DE9FF5F52
:104F000005460E4617469846DDE90EA4002000909F
:104F10005D480078002804DD47F275202080BDE858
:104F2000FF9F5A480078002803DD46F66350208032
:104F3000F5E70AF00E0BBBF1000F09D0BBF1020F31
:104F400007D0BBF1040F10D0BBF1080F0ED101E068
:104F500000BF00BFB8F1000F06D12FB926B91DB9A7
:104F600047F27E202080DAE704E003E045F6256082
:104F70002080D4E700BF2AF01E0008B1012000E025
:104F8000002003900398012803D145F62560208076
:104F9000C5E7CAF3001002900298C0B9B8F57A7F4D
:104FA00003D347F27B202080B9E73B2F03DD47F294
:104FB0007A202080B3E73B2E03DD47F27920208062
:104FC000ADE7632D12DD47F278202080A7E742F29B
:104FD0000F70864203DD47F2792020809FE7B5F508
:104FE0007A7F03DB47F27820208098E72848D0F8C2
:104FF00000904FF4FA70B0FBF9F0404400FB09F068
:105000004FF47A71B0FBF1F14FF461606843C6EB85
:10501000061200EB8200384400FB09100190019851
:1050200060B300BF00BFFBF743F9009000BF00BFB3
:1050300001201849096881F8360023465A46154868
:105040000199006801F09EFA208838B100BF00BFC6
:105050000098FBF731F900BF00BF60E70D4800681A
:1050600000F054FC00BF00BF0098FBF725F900BF1B
:1050700000BFFEF779FE0020208002E047F27E208C
:10508000208000BF4BE70000440000207800002093
:10509000CCAF0008D000002008B500F02BF86A461D
:1050A00000210E48FFF7B0FC0D49097801EB4101E2
:1050B0000C4A02EB810000F083FC0B480068401EA4
:1050C000094908600846006838B90848006808605F
:1050D0006A4600210648FFF797FC08BDAC17002080
:1050E0005E000020E8130020CC000020C800002053
:1050F0007018002010B50348006810B1014800681E
:10510000804710BD3C000020244A2549254A264AF4
:105110002649274A2748284A284A294A294A2A4804
:105120002A482B4A2B482C4A2C482D4A2D482E48D9
:105130002E482F482F4A304A304A3148314A324AA5
:105140003248334833483448344835483548364A7D
:10515000364A374A374A384838483948394A3A4A45
:105160003A4A3B483B483C483C493D483D4A3E4A18
:105170003E4A3F4A3F4A404A404A4148414A424AE1
:1051800042484348434A444A4448454A454A4648B7
:105190004648474800BF00BF00BF704710B0000836
:1051A00078B1000811B0000812B0000814B000086F
:1051B00018B000081CB0000819B0000844B000087E
:1051C00045B0000846B0000848B000084AB00008E2
:1051D0004EB0000850B0000870B0000872B000086F
:1051E00074B0000876B0000878B000087AB0000803
:1051F0007CB00008A8B00008A9B00008AAB0000858
:10520000ACB00008AEB00008AFB00008B0B0000805
:10521000B2B00008B4B00008B6B00008B8B00008DA
:10522000BAB00008BCB00008ECB00008EDB000084F
:10523000EEB00008EFB00008F0B00008F2B00008CF
:10524000F4B000081CB100081DB100081EB1000830
:105250001FB1000820B1000822B1000824B10008E5
:1052600028B1000829B100082AB100082BB10008B4
:105270002CB100082DB100082EB100082FB1000894
:1052800030B1000832B1000833B1000834B1000871
:1052900036B1000838B1000839B100083CB1000847
:1052A00070B1000871B1000872B1000874B1000853
:1052B00076B100080021034A1160034A1180018081
:1052C00070470000480000204C000020002400BF70
:1052D00019E000BF00BFFAF7EBFF044600BF00BFB4
:1052E00009480068401C0849086008480068401CDC
:1052F0000649086000BF00BF2046FAF7DDFF00BF87
:1053000000BFFEF7CFFBE4E7400000209000002044
:1053100010B58AB0044600200E4908600B20002119
:105320000591CDE90704069108460B4909680B4A27
:1053300012680B4B1B68CDE90132CDE903103F2009
:105340000023084A08A100900C48FFF7A9F80AB00A
:1053500010BD00004000002074AF000870AF0008CE
:105360006CAF0008CD52000875432F4F532D4949AB
:10537000492049646C65205461736B001813002048
:105380000021034A1160034A118001807047000028
:10539000500000205400002070B501461A4D2D68C1
:1053A0001DB945F21E750D8070BD184D2D881DB9B3
:1053B00045F21D750D80F7E7134D28682A681032F5
:1053C000124D2D886D1EACB2002308E0026000254E
:1053D00045600581C560103010325D1CABB2A34240
:1053E000F4DB0025056045600581C560064D2D682C
:1053F000074E3560054D2D88B5800025F580358137
:105400000D8000BFD0E70000ACAF0008A4AF0008DB
:10541000DC13002010B5014648894B89002B17DDAD
:105420000A680C4B1B6813600A4C4B6823602346C8
:10543000DB884C891B1B074CE38023469B884C89E7
:105440002344044CA38000234B818B810B604B6071
:1054500010BD0000DC130020018100224281828106
:1054600002604260704700000021034A1160034A55
:105470001180018070470000580000205C0000206F
:105480002DE9F04105460C4616461F4615480068B2
:1054900080F8346000201349096881F835003946E6
:1054A0001048006800F088FD6CB104F10808EC6059
:1054B000012229460B48006800F016F829464046AC
:1054C00000F06BF806E0002006490968C887054926
:1054D0000968086303480168204600F019F8BDE830
:1054E000F0810000D000002010B5C28701630023C6
:1054F0000AE000244C600C600C614C610C83CC61B0
:10550000886020315C1CA3B29342F2DB10BD000026
:1055100030B548B14568C1F8C05000F108042268B0
:1055200093681D6AC56113E091F83450022D02D0D2
:10553000072D08D103E007A5C1F8C05007E007A573
:10554000C1F8C05003E008A5C1F8C05000BF00BFBB
:1055500030BD00005461736B205100005461736BC7
:105560002053656D000000002000000030B507A545
:10557000C1F8C05000F1080422681AB193681D6A8E
:10558000C56101E001A5C56130BD0000200000003B
:1055900000210160416001817047F0B58E6896F886
:1055A000375007893FB90127078100274F600F60F7
:1055B0000160416023E007897F1C0781026806E0E3
:1055C000946894F83770AF4200DD02E05268002A18
:1055D000F6D100BF32B900274F6043680B605960B5
:1055E00041600CE017682FB9116000270F604A6016
:1055F000016004E013680B604A6059601160F0BDFF
:105600002DE9F0410446256BE68F0AE0D5F80C80C1
:1056100008F108072946384600F00AF82035701EC0
:1056200086B2002EF2DC0020E0872063BDE8F08126
:1056300010B50489012C03D100240460446011E0FA
:105640000C6824B94A680024146002600AE04C68BF
:1056500024B90B6800245C60436003E00B684A686F
:105660005A6013600489641E048100244C600C603D
:1056700010BD2DE9F84306460C4617469846089D8E
:1056800094F83600082850D2DFE800F00405080935
:1056900006072B2C00BF00BF00BF47E000BF94F8F7
:1056A0003400032807D143463A4621463046009548
:1056B00000F03FF803E0E765A4F86080256436B1A8
:1056C0002046FFF79DFF21463046FFF74FFF20465B
:1056D00000F03CFD00203434A070607004F8340900
:1056E00024E000BF94F83400032807D143463A462B
:1056F00021463046009500F01CF803E0E765A4F869
:1057000060802564204601F01BF836B12046FFF783
:1057100077FF21463046FFF729FF04203434A0707C
:105720000020607004F8340900E000BF00BFBDE84D
:10573000F883F0B50446059E086BCD8F0AE0C76874
:10574000A74204D1046142610383C66104E02030B2
:105750006F1EBDB2002DF2DC00BFF0BD70B500259C
:10576000074C03E005F12000C5B2241D2068002885
:10577000F8D02068FAF7A7FD2844C5B2284670BDC6
:105780001C000020002004E00021034A42F8201001
:10579000401C0228F8D370471C00002030B5420995
:1057A00000F01F030121C3F11F04A140034C54F872
:1057B00022400C43014D45F8224030BD1C00002022
:1057C00030B5420900F01F030121C3F11F04A140BD
:1057D000034C54F822408C43014D45F8224030BD23
:1057E0001C0000200021034A1160034A118001803F
:1057F00070470000640000206800002000210AE0DB
:1058000001EB4102054B03EB8200002202810260A2
:1058100042604A1CD1B24029F2D37047E8130020FD
:1058200010B5044694F83700FFF7B8FF94F8370036
:1058300005490978884203D1204600F027F802E0A4
:10584000204600F003F810BD5E00002010B590F86F
:10585000373003EB43030C4C04EB83010B893BB95A
:1058600001230B810023C36003610860486009E0E5
:105870000B895B1C0B810B68C360002303610A6802
:105880001061086010BD0000E813002010B590F80A
:10589000373003EB43030B4C04EB83010B893BB91B
:1058A00001230B810023C36003610860486008E0A6
:1058B0000B895B1C0B810023C3604A680261D060C6
:1058C000486010BDE813002010B501460C8924B1D2
:1058D000012C03D0022C0CD101E000BF14E00868B9
:1058E0004A6802610024C4601461D0600A604860A4
:1058F0000AE008684A68C36800241C61C460026149
:10590000D0600B60486000BF00BF10BD2DE9F041C2
:10591000054695F8370000EB4000124901EB800482
:105920002F69EE6887B946B9002020812060606049
:1059300095F83700FFF744FF0EE02089401E2081D4
:1059400000203061266007E02089401E2081FE6033
:105950000EB9676000E0376100202861E860BDE8AB
:10596000F0810000E813002010B5044800780128F9
:1059700003D1FBF7B3F90249086010BD780000209D
:105980006C00002010B50A48007880B9FBF7A6F932
:1059900008490968441A08480068A04201D206482C
:1059A000046006480068A04201D20448046010BDAB
:1059B000780000206C00002070000020740000209F
:1059C00070B5054600262E480078012800D070BD2D
:1059D00000BF00BFFAF76CFC064600BF00BF2C6892
:1059E0003CB900BF00BF3046FAF766FC00BF00BFFD
:1059F000EDE72448844207D100BF00BF3046FAF7E4
:105A00005BFC00BF00BFE2E7A06D10B1A06D401EBF
:105A1000A065A06D38B100BF00BF3046FAF74CFC5E
:105A200000BF00BFD3E72889022807DA00BF00BF04
:105A30003046FAF741FC00BF00BFC8E712480078C3
:105A4000002807DD00BF00BF3046FAF735FC00BF75
:105A500000BFBCE72846FFF737FF2C68606D18B918
:105A60000A480068A06501E0606DA06500BF00BF46
:105A70003046FAF721FC00BF00BF00BFA7E70000D7
:105A80008000002018130020780000207C000020F7
:105A900009A1C161002141610849096811B90021CA
:105AA000816105E005490968816104490968486127
:105AB00002490860704700002000000084000020B8
:105AC0000021034A1160034A1180018070470000E1
:105AD00084000020880000202DE9FF5F04468846EE
